:020000040800F2
:1000000000280020D5150008F9140008FF14000886
:10001000051500080B150008111500080000000068
:10002000000000000000000000000000171500089C
:1000300023150008000000002F1500083B150008DC
:100040001D1600081D1600081D1600081D160008C4
:100050001D1600081D1600081D1600081D160008B4
:100060001D1600081D1600081D1600081D160008A4
:100070001D1600081D1600081D1600081D16000894
:100080001D1600081D1600081D1600081D16000884
:100090001D1600081D1600081D1600081D16000874
:1000A0001D1600081D1600081D1600081D16000864
:1000B000491500081D160008000000001D16000864
:1000C0001D16000800000000000000001D160008BA
:1000D000000000001D1600081D16000800000000AA
:1000E0001D1600081D1600081D160008000000005F
:1000F0000000000000000000000000000000000000
:0C01000000000000000000005FF808F1A3
:10010C0010B5054C237833B9044B13B10448AFF345
:10011C0000800123237010BD0801002000000000A6
:10012C00082E000808B5034B1BB103490348AFF375
:10013C00008008BD000000000C010020082E000803
:10014C0080B483B000AF00237B601BE0194A7B684E
:10015C00012142F82310184A7B68012142F8231030
:10016C00164A7B68012142F82310154A7B6801214D
:10017C0042F82310134A7B68C82142F823107B688D
:10018C0001337B607B68022BE0DD00233B6007E0E2
:10019C000D4A3B68002142F823103B6801333B6059
:1001AC003B68022BF4DD00BF00BF0C37BD4680BCA2
:1001BC00704700BF98010020A4010020C801002056
:1001CC008C010020B0010020BC01002080B483B061
:1001DC0000AF7860094A7B6852F82330012B06D1B6
:1001EC00064A7B68002142F82310012300E000231B
:1001FC0018460C37BD4680BC704700BFBC010020C0
:10020C0080B582B000AF00237B6078E0404A7B6809
:10021C0052F823203F497B6841F823203E4A7B68F3
:10022C0052F823203A497B6841F823203B4A7B68EB
:10023C0052F823203A497B6831F81330194610469E
:10024C0001F0D2FC03461946334A7B6842F823106E
:10025C00304A7B6852F823202D497B6851F82330B3
:10026C009A4249D12A4A7B6852F823202A497B6852
:10027C0051F823309A423FD12A4A7B6852F8232006
:10028C0025497B6851F823309A4218D0224A7B6862
:10029C0052F8232023497B6841F823201E4A7B68AF
:1002AC0052F82330002B27D11F4A7B68012142F8DA
:1002BC0023101E4A7B68C82142F823101CE01B4AFD
:1002CC007B6852F823305A1E18497B6841F823206A
:1002DC00164A7B6852F82330002B0DDC0E4A7B68E3
:1002EC0052F82330002B0CBF01230023DBB219463C
:1002FC000C4A7B6842F823107B6801337B607B6877
:10030C00022B83DD00BF00BF0837BD4680BD00BF98
:10031C00A401002098010020C8010020000000204A
:10032C000C0000208C010020BC010020B00100203A
:10033C0080B500AF00222021074801F06CFC01229F
:10034C004021054801F067FC01228021024801F0A0
:10035C0062FC00BF80BD00BF0008014080B500AF4B
:10036C0001222021074801F056FC002240210548BB
:10037C0001F051FC01228021024801F04CFC00BF2D
:10038C0080BD00BF0008014080B500AF01222021D4
:10039C00074801F040FC01224021054801F03BFCDC
:1003AC0000228021024801F036FC00BF80BD00BF56
:1003BC000008014080B500AF00224FF4807108485E
:1003CC0001F029FC01224FF40071054801F023FCD7
:1003DC0001224FF48061024801F01DFC00BF80BD7A
:1003EC000008014080B500AF01224FF4807108482D
:1003FC0001F011FC00224FF40071054801F00BFCD8
:10040C0001224FF48061024801F005FC00BF80BD61
:10041C000008014080B500AF01224FF480710848FC
:10042C0001F0F9FB01224FF40071054801F0F3FBD8
:10043C0000224FF48061024801F0EDFB00BF80BD4B
:10044C000008014080B500AF01222021074801F0CF
:10045C00E2FB01224021054801F0DDFB0122802155
:10046C00024801F0D8FB00BF80BD00BF000801406E
:10047C0080B500AF01224FF48071084801F0CBFB2E
:10048C0001224FF40071054801F0C5FB01224FF425
:10049C008061024801F0BFFB00BF80BD0008014035
:1004AC0080B582B000AF78600B46FB705C4B1B785C
:1004BC00002B02D0012B77D0AEE0FB78002B21D1A2
:1004CC0000222021574801F0A6FB00224FF4807136
:1004DC00544801F0A0FB01224021524801F09BFB43
:1004EC0001224FF400714F4801F095FB012280214D
:1004FC004C4801F090FB01224FF48061494801F017
:10050C008AFB45E0FB78012B21D1012220214548B3
:10051C0001F081FB01224FF48071424801F07BFB1A
:10052C00002240213F4801F076FB00224FF400717D
:10053C003C4801F070FB012280213A4801F06BFB32
:10054C0001224FF48061374801F065FB20E0012265
:10055C002021344801F05FFB01224FF480713148B7
:10056C0001F059FB012240212E4801F054FB0122DD
:10057C004FF400712B4801F04EFB002280212948DA
:10058C0001F049FB00224FF48061264801F043FB47
:10059C00254B9B78002B3CD0214B01221A7079689B
:1005AC00022000F0FFFE34E0FB78002B0BD101227F
:1005BC0020211C4801F02FFB01224FF480711948B7
:1005CC0001F029FB19E0FB78012B0BD10122402112
:1005DC00144801F020FB01224FF40071114801F086
:1005EC001AFB0AE0012280210E4801F014FB0122C3
:1005FC004FF480610B4801F00EFB0B4B9B78002BEA
:10060C0009D0074B00221A707968022000F0CAFE4C
:10061C0001E000BF00E000BF00BF0837BD4680BD51
:10062C0024010020000801407401002080B500AFB7
:10063C004A4B1B68032B00F2878001A252F823F06F
:10064C005D0600089506000815070008D506000889
:10065C00FFF7F8FE424B1B684FF47A7202FB03F370
:10066C001946002000F09EFE3D4B1B68184600F01A
:10067C0063FD00F09BFD4FF47A71042000F092FEB4
:10068C00364B01221A6066E0FFF752FE354B1B78A1
:10069C00002B5BD0314B03221A60334B1B684FF499
:1006AC007A7202FB03F31946002000F07BFE2E4BFE
:1006BC001B68184600F040FD00F078FD4FF47A718D
:1006CC00042000F06FFE41E0FFF75EFE254B1B7827
:1006DC00002B3DD0214B02221A60244B1B684FF497
:1006EC007A7202FB03F31946002000F05BFE1F4BED
:1006FC001B68184600F020FD00F058FD4FF47A718D
:10070C00042000F04FFE23E0FFF728FE154B1B786A
:10071C00002B1FD0114B01221A60114B1B684FF498
:10072C007A7202FB03F31946002000F03BFE0C4BDF
:10073C001B68184600F000FD00F038FD4FF47A718C
:10074C00042000F02FFE05E000BF04E000BF02E033
:10075C0000BF00E000BF00BF80BD00BF280100202B
:10076C0014000020740100201C0000201800002040
:10077C0080B500AF4A4B1B68032B00F2878001A2A7
:10078C0052F823F0A1070008D907000859080008FF
:10079C0019080008FFF76CFE424B1B684FF47A7285
:1007AC0002FB03F31946052000F0FCFD3D4B1B68D2
:1007BC00184600F01FFD00F057FD4FF47A7106202B
:1007CC0000F0F0FD364B03221A6066E0FFF7F2FDF5
:1007DC00354B5B79002B5BD0314B03221A60314BCC
:1007EC001B684FF47A7202FB03F31946052000F0E4
:1007FC00D9FD2C4B1B68184600F0FCFC00F034FDB6
:10080C004FF47A71062000F0CDFD41E0FFF702FEB7
:10081C00254B5B79002B3DD0214B02221A60234BD8
:10082C001B684FF47A7202FB03F31946052000F0A3
:10083C00B9FD1E4B1B68184600F0DCFC00F014FDE3
:10084C004FF47A71062000F0ADFD23E0FFF7CAFDEE
:10085C00154B5B79002B1FD0114B01221A60144BE6
:10086C001B684FF47A7202FB03F31946052000F063
:10087C0099FD0F4B1B68184600F0BCFC00F0F4FC13
:10088C004FF47A71062000F08DFD05E000BF04E006
:10089C0000BF02E000BF00E000BF00BF80BD00BF92
:1008AC002C0100201C0000207401002018000020E6
:1008BC001400002080B500AFAD4B1B68013B0B2B27
:1008CC0000F24A8101A252F823F000BF0909000886
:1008DC000909000809090008650B0008650B0008E8
:1008EC00650B0008650B0008650B0008650B00081C
:1008FC0079090008250A0008C90A00089D4B1B79D4
:10090C00002B06D04FF47A71042000F04BFD00F060
:10091C004DFC984B9B79002B06D04FF47A71062036
:10092C0000F040FD00F0A0FC0020FFF74FFC034658
:10093C00012B40F013818E4B0A221A608E4B0A2237
:10094C001A600021002000F02DFD42F210710120F0
:10095C0000F028FDC821022000F024FD874B1B6805
:10096C00184600F0E9FB00F00DFCF7E00021C82070
:10097C00FFF796FD824B00229A60814B0122DA60D0
:10098C007C4B5B78002B05D10220FFF71FFC034644
:10099C00002B09D0764B00221A60774B00221A608C
:1009AC000021022000F0FEFC0120FFF70FFC0346A3
:1009BC00012B17D1714B1B680133704A13606F4BBD
:1009CC001B68632B02DD6D4B01221A606B4B1B689D
:1009DC00184600F0B1FB00F0D5FB42F2107101207B
:1009EC0000F0E0FC0020FFF7F1FB0346012B40F088
:1009FC00B7805F4B0B221A605F4B0B221A6042F2DE
:100A0C001071012000F0CEFC5E4B1B68184600F004
:100A1C0093FB00F0B7FBA3E00221C820FFF740FDD9
:100A2C00574B00229A60564B0222DA60514B5B788E
:100A3C00002B05D10220FFF7C9FB0346002B06D083
:100A4C004B4B00221A600021022000F0ABFC01206D
:100A5C00FFF7BCFB0346012B17D14A4B1B68013334
:100A6C00484A1360474B1B68632B02DD454B012240
:100A7C001A60444B1B68184600F05EFB00F082FBCA
:100A8C0042F21071012000F08DFC0020FFF79EFB5C
:100A9C000346012B66D1364B0C221A60364B0C22C6
:100AAC001A6042F21071012000F07CFC364B1B687E
:100ABC00184600F041FB00F065FB53E00121C82013
:100ACC00FFF7EEFC2E4B00229A602D4B0322DA60CE
:100ADC00284B5B78002B05D10220FFF777FB0346F0
:100AEC00002B09D0224B00221A60234B00221A60E3
:100AFC000021022000F056FC0120FFF767FB0346A3
:100B0C00012B17D1204B1B6801331F4A13601E4B5E
:100B1C001B68092B02DD1C4B01221A601A4B1B6847
:100B2C00184600F009FB00F02DFB42F21071012079
:100B3C0000F038FC0020FFF749FB0346012B13D1D2
:100B4C000B4B00221A600C4B00221A6042F21071FF
:100B5C00012000F027FC07E000BF06E000BF04E026
:100B6C0000BF02E000BF00E000BF00BF80BD00BFBF
:100B7C0028010020740100202C010020140000200A
:100B8C003C0100201C0000201800002080B500AFA4
:100B9C0000F040FD00F034F800F0BAF800F06CF80A
:100BAC00114801F099FC114B00221A60FFF7C8FAAA
:100BBC0000F0A4FA00F0CAF9642200210C4800F0FD
:100BCC00D5F9642232210B4800F0D0F9642264215B
:100BDC00094800F0CBF94FF4FA729621074800F05F
:100BEC00C5F900F0F7F9FCE7D4010020280100203A
:100BFC00390600087D070008C108000885130008A5
:100C0C0080B590B000AF07F11803282200211846D8
:100C1C0002F028F83B1D00221A605A609A60DA60D4
:100C2C001A610223BB610123BB621023FB62002308
:100C3C007B6307F11803184601F022F80346002BDA
:100C4C0001D000F0D3F80F237B600023BB6000239E
:100C5C00FB6000233B6100237B613B1D0021184698
:100C6C0001F08EFA0346002B01D000F0BFF800BF54
:100C7C004037BD4680BD000080B586B000AF07F19F
:100C8C00080300221A605A609A60DA603B46002220
:100C9C001A605A601D4B4FF080421A601B4B41F694
:100CAC003F725A60194B00229A60184B0922DA6085
:100CBC00164B00221A61154B00229A61134801F061
:100CCC00BBFB0346002B01D000F090F84FF480538F
:100CDC00BB6007F1080319460C4801F039FD0346C7
:100CEC00002B01D000F082F800233B6000237B60D6
:100CFC003B461946054801F011FF0346002B01D075
:100D0C0000F074F800BF1837BD4680BDD401002038
:100D1C0080B586B000AF07F1080300221A605A6054
:100D2C009A60DA60274B9B69264A43F0040393616F
:100D3C00244B9B6903F004037B607B68214B9B690C
:100D4C00204A43F0080393611E4B9B6903F0080390
:100D5C003B603B6800224FF2E0711B4800F05BFFE8
:100D6C0000227F21194800F056FF0E23BB600023A0
:100D7C00FB6001233B6107F108031946124800F0A0
:100D8C00B9FD4FF2E073BB600123FB6000233B61B4
:100D9C0002237B6107F1080319460B4800F0AAFDFA
:100DAC007F23BB600123FB6000233B6102237B613B
:100DBC0007F108031946054800F09CFD00BF1837E1
:100DCC00BD4680BD0010024000080140000C0140EF
:100DDC0080B582B000AF786000F002FBFFF710FA2C
:100DEC0000F03EF900BF0837BD4680BD80B400AFAF
:100DFC0072B600BFFEE784B080B582B000AF07F1D9
:100E0C00100C8CE80F00182001F01CFF03467B60CF
:100E1C007B68002B01D1002312E03A697B681A60D1
:100E2C007A697B685A60BA697B689A603A6A7B68AF
:100E3C001A61FA697B68DA607B6800225A617B6808
:100E4C0018460837BD46BDE8804004B0704784B0F2
:100E5C0080B586B002AF786007F11C0080E80E0008
:100E6C00FB6A009307F11C030FCBFFF7C4FFB860BC
:100E7C007B681B68002B03D17B68BA681A6048E05A
:100E8C007B681B68FB60BB685A68FB685B689A42AE
:100E9C000DD2FB685A68BB685B68D21AFB685A6053
:100EAC00BB68FA685A617B68BA681A6031E0BB6843
:100EBC005A68FB685B68D21ABB685A600AE0BB6868
:100ECC005A68FB685B695B68D21ABB685A60FB683E
:100EDC005B69FB60FB685B69002B06D0FB685B6998
:100EEC005A68BB685B689A42E9D9FB685B69002B5E
:100EFC0008D0FB685B695968BB685A68FB685B691A
:100F0C008A1A5A60FB685A69BB685A61FB68BA68EE
:100F1C005A611037BD46BDE8804004B0704780B5BB
:100F2C0084B000AF78607B681B68002B0AD07B68AC
:100F3C001B68FB60FB685A697B681A60F86801F0F3
:100F4C0089FE00E000BF1037BD4680BD80B400AF05
:100F5C00044B00221A60044B00221A6000BFBD46ED
:100F6C0080BC7047340100203001002080B58CB06B
:100F7C0002AFF860B9607A60FB687B61BB68124AAB
:100F8C00A2FB0323DB08BB617B680F4AA2FB032394
:100F9C00DB08FB610D4B1B685A1C0C490A607B6219
:100FAC0000233B626A4607F1200393E8030082E8C2
:100FBC00030007F114030ECB0548FFF748FF00BFF1
:100FCC002837BD4680BD00BFCDCCCCCC3001002035
:100FDC003401002080B588B002AF204B1B68002B79
:100FEC0037D01E4B1B68DB68012B2DD11B4B1B68AC
:100FFC001B689847194B1B689B68002B03D117483B
:10100C00FFF78DFF20E0154B1B681B687B60134BB3
:10101C001B689B68BB60114B1B689B68FB600023C3
:10102C003B610E4B1B681B697B610C48FFF777FF1C
:10103C006A4607F1100393E8030082E803003B1DA6
:10104C000ECB0648FFF703FF0121002000F0FCFD4A
:10105C0000E000BF1837BD4680BD00BF3401002042
:10106C0080B400AF0B4B1B68002B0FD0094B1B68D7
:10107C005B68002B05D0074B1B685A68013A5A6015
:10108C0005E0044B1B680122DA6000E000BFBD469E
:10109C0080BC70473401002090B585B000AF7860FB
:1010AC007B68002B02DA7B68092B1DDC0023FB60BC
:1010BC0016E00F4AFB6852F823000E4AFB6832F820
:1010CC0013100D4C7A681346DB009B1AE218FB6870
:1010DC0013441B781A4600F09EFDFB680133FB603D
:1010EC00FB68062BE5DD00E000BF1437BD4690BD64
:1010FC00200000203C0000204C00002080B500AFF8
:10110C0001224FF480510B4800F085FD01224FF471
:10111C000051084800F07FFD01224FF48041054842
:10112C0000F079FD01224FF40041024800F073FDFC
:10113C0000BF80BD0008014080B483B000AF786070
:10114C007B680D4A82FB03129210DB17D31A0B4AF1
:10115C0013607968084B83FB01239A10CB17D21AC2
:10116C0013469B0013445B00CA1A054B1A6000BF60
:10117C000C37BD4680BC7047676666662C02002043
:10118C002402002080B400AF054B1B68054A136095
:10119C00054B1B68034A536000BFBD4680BC7047BB
:1011AC002C0200203C0100202402002080B500AF5E
:1011BC00FFF7E8FF0D4B1B68002B04DD0B4B1B6886
:1011CC00013B0A4A1360094B1B68002B0BDC084BD4
:1011DC001B68002B07DD064B1B68013B044A1360A0
:1011EC00024B09221A6000BF80BD00BF2402002000
:1011FC002C02002080B483B000AF78607B680D4A6D
:10120C0082FB03129210DB17D31A0B4A1360796816
:10121C00084B83FB01239A10CB17D21A13469B0061
:10122C0013445B00CA1A054B1A6000BF0C37BD464D
:10123C0080BC70476766666620020020280200208A
:10124C0080B400AF054B1B68054A9360054B1B68C7
:10125C00034AD36000BFBD4680BC7047200200200B
:10126C003C0100202802002080B500AFFFF7E8FF0A
:10127C000D4B1B68002B04DD0B4B1B68013B0A4A12
:10128C001360094B1B68002B0BDC084B1B68002BF5
:10129C0007DD064B1B68013B044A1360024B092215
:1012AC001A6000BF80BD00BF280200202002002071
:1012BC0080B582B000AF78607B68032B52D801A256
:1012CC0052F823F0E1120008051300082913000856
:1012DC004D130008264B1B681846FFF7DDFE002255
:1012EC004FF48051234800F096FC01224FF400414A
:1012FC00204800F090FC36E01D4B5B681846FFF769
:10130C00CBFE00224FF400511A4800F084FC01225D
:10131C004FF48051174800F07EFC24E0144B9B687E
:10132C001846FFF7B9FE00224FF48041114800F037
:10133C0072FC01224FF400510E4800F06CFC12E0DC
:10134C000B4BDB681846FFF7A7FE00224FF4004159
:10135C00084800F060FC01224FF48041054800F081
:10136C005AFC00E000BF00BF0837BD4680BD00BF7F
:10137C003C0100200008014080B500AF084B1B6801
:10138C00032B02DD064B00221A60054B1B685A1C0E
:10139C0003490A601846FFF78BFF00BF80BD00BFF2
:1013AC003801002080B483B000AF78603960094BFD
:1013BC001B683A6892FBF3F207497B6841F82320DB
:1013CC00064A7B68134400221A7000BF0C37BD46D6
:1013DC0080BC7047940000204C0100207401002058
:1013EC0080B483B000AF00237B601CE0124A7B68A2
:1013FC0052F82330002B13DD0F4A7B6852F8233050
:10140C005A1E0D497B6841F823200B4A7B6852F821
:10141C002330002B04DC094A7B68134401221A7028
:10142C007B6801337B607B68092BDFDD00BF00BF6D
:10143C000C37BD4680BC70474C0100207401002065
:10144C0080B485B000AF154B9B69144A43F001037F
:10145C009361124B9B6903F00103BB60BB680F4B9C
:10146C00DB690E4A43F08053D3610C4BDB6903F00C
:10147C0080537B607B680A4B5B68FB60FB6823F0E6
:10148C00E063FB60FB6843F08063FB60044AFB682D
:10149C00536000BF1437BD4680BC7047001002403B
:1014AC000000014080B584B000AF78607B681B6899
:1014BC00B3F1804F13D10C4BDB690B4A43F00103A2
:1014CC00D361094BDB6903F00103FB60FB6800226D
:1014DC0000211C2000F0D7F91C2000F0F0F900BF0F
:1014EC001037BD4680BD00BF0010024080B400AF75
:1014FC00FEE780B400AFFEE780B400AFFEE780B437
:10150C0000AFFEE780B400AFFEE780B400AF00BFD1
:10151C00BD4680BC704780B400AF00BFBD4680BCE8
:10152C00704780B400AF00BFBD4680BC704780B52B
:10153C0000AF00F0B5F800BF80BD000080B500AF73
:10154C00024801F015F800BF80BD00BFD401002097
:10155C0080B586B000AF7860144A154BD31A7B6106
:10156C007B693B61134B1B68002B02D1114B124A58
:10157C001A60104B1A687B6813443A699A4207D276
:10158C0001F036FB03460C221A604FF0FF3309E0E2
:10159C00084B1B68FB60074B1A687B681344054AB1
:1015AC001360FB6818461837BD4680BD0028002024
:1015BC0000040000800100204802002080B400AF2D
:1015CC0000BFBD4680BC7047FFF7F8FF0B480C49C5
:1015DC000C4A002302E0D458C4500433C4188C4283
:1015EC00F9D3094A094C002301E013600432A242EA
:1015FC00FBD301F003FBFFF7C9FA70470000002092
:10160C00080100204C2E0008080100204402002094
:10161C00FEE7000080B500AF084B1B68074A43F09B
:10162C0010031360032000F023F90F2000F008F8DA
:10163C00FFF706FF0023184680BD00BF00200240C4
:10164C0080B582B000AF7860124B1A68124B1B78D1
:10165C0019464FF47A73B3FBF1F3B2FBF3F318466C
:10166C0000F03BF90346002B01D001230EE07B6810
:10167C000F2B0AD8002279684FF0FF3000F003F9E5
:10168C00064A7B681360002300E0012318460837E4
:10169C00BD4680BD98000020A00000209C000020CA
:1016AC0080B400AF054B1B781A46054B1B681344DE
:1016BC00034A136000BFBD4680BC7047A0000020E9
:1016CC003002002080B400AF024B1B681846BD46A8
:1016DC0080BC70473002002080B485B000AF7860C9
:1016EC007B6803F00703FB600C4BDB68BB60BA68DC
:1016FC004FF6FF031340BB60FB681A02BB68134331
:10170C0043F0BF6343F40033BB60044ABB68D3604F
:10171C0000BF1437BD4680BC704700BF00ED00E031
:10172C0080B400AF044BDB681B0A03F007031846B8
:10173C00BD4680BC704700BF00ED00E080B483B0B4
:10174C0000AF0346FB7197F90730002B0BDBFB79DD
:10175C0003F01F02064997F907305B09012000FAD4
:10176C0002F241F8232000BF0C37BD4680BC704705
:10177C0000E100E080B483B000AF03463960FB7138
:10178C0097F90730002B0ADB3B68DAB20C4997F962
:10179C0007301201D2B20B4483F800230AE03B68F5
:1017AC00DAB20849FB7903F00F03043B1201D2B201
:1017BC000B441A7600BF0C37BD4680BC704700BF87
:1017CC0000E100E000ED00E080B489B000AFF8600B
:1017DC00B9607A60FB6803F00703FB61FB69C3F136
:1017EC000703042B28BF0423BB61FB690433062BBE
:1017FC0002D9FB69033B00E000237B614FF0FF3211
:10180C00BB6902FA03F3DA43BB681A407B699A405E
:10181C004FF0FF317B6901FA03F3D9437B680B402E
:10182C00134318462437BD4680BC704780B582B040
:10183C0000AF78607B68013BB3F1807F01D301235B
:10184C000FE00A4A7B68013B53600F214FF0FF30D9
:10185C00FFF790FF054B00229A60044B07221A6099
:10186C00002318460837BD4680BD00BF10E000E0DD
:10187C0080B582B000AF78607868FFF72DFF00BFAD
:10188C000837BD4680BD80B586B000AF0346B96051
:10189C007A60FB7300237B61FFF742FF78617A6803
:1018AC00B9687869FFF790FF024697F90F30114637
:1018BC001846FFF75FFF00BF1837BD4680BD80B5E7
:1018CC0082B000AF0346FB7197F907301846FFF75B
:1018DC0035FF00BF0837BD4680BD80B582B000AF74
:1018EC0078607868FFF7A2FF034618460837BD46B4
:1018FC0080BD000080B48BB000AF786039600023ED
:10190C007B6200233B6248E101227B6A02FA03F30B
:10191C00FB613B681B68FA691340BB61BA69FB69E0
:10192C009A4240F037813B685B68A34A93425ED091
:10193C00A14A934275D8A14A934258D09F4A9342E8
:10194C006FD89F4A934252D09D4A934269D89D4A80
:10195C0093424CD09B4A934263D89B4A934246D0C5
:10196C00994A93425DD8122B2AD8122B59D801A22E
:10197C0052F823F0FB190008D5190008E7190008E4
:10198C00291A00082F1A00082F1A00082F1A00080D
:10199C002F1A00082F1A00082F1A00082F1A0008F7
:1019AC002F1A00082F1A00082F1A00082F1A0008E7
:1019BC002F1A00082F1A0008DD190008F119000869
:1019CC00824A934213D02CE03B68DB683B6229E0EF
:1019DC003B68DB6804333B6224E03B68DB6808331C
:1019EC003B621FE03B68DB680C333B621AE03B68F0
:1019FC009B68002B02D104233B6213E03B689B687D
:101A0C00012B05D108233B627B68FA691A6109E056
:101A1C0008233B627B68FA695A6103E000233B624E
:101A2C0000E000BFBB69FF2B01D87B6801E07B683D
:101A3C0004337B61BB69FF2B02D87B6A9B0002E0FD
:101A4C007B6A083B9B003B617B691A680F213B69F1
:101A5C0001FA03F3DB431A40396A3B6901FA03F3D9
:101A6C001A437B691A603B685B6803F08053002B58
:101A7C0000F09080564B9B69554A43F001039361EB
:101A8C00534B9B6903F00103BB60BB68514A7B6AF3
:101A9C009B08023352F82330FB607B6A03F003038C
:101AAC009B000F2202FA03F3DB43FA681340FB603E
:101ABC007B68494A93420DD07B68484A934207D0D1
:101ACC007B68474A934201D1022304E0032302E0DE
:101ADC00012300E000237A6A02F003029200934093
:101AEC00FA681343FB603B497B6A9B080233FA6834
:101AFC0041F823203B685B6803F48013002B06D06D
:101B0C00384B9A683749BB6913438B6006E0354BF9
:101B1C009A68BB69DB43334913408B603B685B6855
:101B2C0003F40013002B06D02E4BDA682D49BB6949
:101B3C001343CB6006E02B4BDA68BB69DB432949C6
:101B4C001340CB603B685B6803F40033002B06D07A
:101B5C00244B5A682349BB6913434B6006E0214B65
:101B6C005A68BB69DB431F4913404B603B685B6899
:101B7C0003F48033002B06D01A4B1A681949BB6941
:101B8C0013430B6006E0174B1A68BB69DB4315491E
:101B9C0013400B607B6A01337B623B681A687B6A7B
:101BAC0022FA03F3002B7FF4AFAE00BF00BF2C373B
:101BBC00BD4680BC704700BF0000321000003110E1
:101BCC000000221000002110000012100000111063
:101BDC00001002400000014000080140000C0140D0
:101BEC00001001400004014080B485B000AF786063
:101BFC000B467B807B689A687B881340002B02D055
:101C0C000123FB7301E00023FB73FB7B18461437A5
:101C1C00BD4680BC704780B483B000AF78600B4683
:101C2C007B8013467B707B78002B03D07A887B6893
:101C3C001A6103E07B881A047B681A6100BF0C37B9
:101C4C00BD4680BC7047000080B483B000AF7860A4
:101C5C000B46FB70094B1B69084A23F00403136104
:101C6C00FB78012B01D130BF02E040BF20BF20BF69
:101C7C0000BF0C37BD4680BC704700BF00ED00E0D4
:101C8C0080B586B000AF78607B68002B01D1012352
:101C9C006CE27B681B6803F00103002B00F087806B
:101CAC00924B5B6803F00C03042B0CD08F4B5B68DE
:101CBC0003F00C03082B12D18C4B5B6803F48033BC
:101CCC00B3F5803F0BD1894B1B6803F40033002B19
:101CDC006CD07B685B68002B68D1012346E27B6883
:101CEC005B68B3F5803F06D1804B1B687F4A43F499
:101CFC00803313602EE07B685B68002B0CD17B4B30
:101D0C001B687A4A23F480331360784B1B68774A3C
:101D1C0023F4802313601DE07B685B68B3F5A02F70
:101D2C000CD1724B1B68714A43F4802313606F4BC8
:101D3C001B686E4A43F4803313600BE06B4B1B68DB
:101D4C006A4A23F480331360684B1B68674A23F498
:101D5C00802313607B685B68002B13D0FFF7B2FC09
:101D6C00386108E0FFF7AEFC02463B69D31A642BDE
:101D7C0001D90323FAE15D4B1B6803F40033002BFC
:101D8C00F0D014E0FFF79EFC386108E0FFF79AFCF6
:101D9C0002463B69D31A642B01D90323E6E1534B6A
:101DAC001B6803F40033002BF0D100E000BF7B680C
:101DBC001B6803F00203002B63D04C4B5B6803F0F1
:101DCC000C03002B0BD0494B5B6803F00C03082B66
:101DDC001CD1464B5B6803F48033002B16D1434B6C
:101DEC001B6803F00203002B05D07B681B69012BD9
:101DFC0001D00123BAE13D4B1B6823F0F8027B684C
:101E0C005B69DB00394913430B603AE07B681B6963
:101E1C00002B20D0364B01221A60FFF753FC38619F
:101E2C0008E0FFF74FFC02463B69D31A022B01D99D
:101E3C0003239BE12D4B1B6803F00203002BF0D016
:101E4C002A4B1B6823F0F8027B685B69DB0027498F
:101E5C0013430B6015E0264B00221A60FFF732FC8F
:101E6C00386108E0FFF72EFC02463B69D31A022BBF
:101E7C0001D903237AE11D4B1B6803F00203002BED
:101E8C00F0D17B681B6803F00803002B3AD07B6809
:101E9C009B69002B19D0174B01221A60FFF712FC1B
:101EAC00386108E0FFF70EFC02463B69D31A022B9F
:101EBC0001D903235AE10D4B5B6A03F00203002B9B
:101ECC00F0D0012000F09AFA1CE00A4B00221A60B4
:101EDC00FFF7F8FB38610FE0FFF7F4FB02463B69B4
:101EEC00D31A022B08D9032340E100BF0010024093
:101EFC0000004242800442429E4B5B6A03F00203A4
:101F0C00002BE9D17B681B6803F00403002B00F065
:101F1C00A6800023FB75974BDB6903F08053002BE5
:101F2C000DD1944BDB69934A43F08053D361914BB1
:101F3C00DB6903F08053BB60BB680123FB758E4BE0
:101F4C001B6803F48073002B18D18B4B1B688A4AD7
:101F5C0043F480731360FFF7B5FB386108E0FFF7BB
:101F6C00B1FB02463B69D31A642B01D90323FDE074
:101F7C00814B1B6803F48073002BF0D07B68DB680B
:101F8C00012B06D17B4B1B6A7A4A43F00103136287
:101F9C002DE07B68DB68002B0CD1764B1B6A754AF5
:101FAC0023F001031362734B1B6A724A23F0040380
:101FBC0013621CE07B68DB68052B0CD16D4B1B6A34
:101FCC006C4A43F0040313626A4B1B6A694A43F080
:101FDC00010313620BE0674B1B6A664A23F0010393
:101FEC001362644B1B6A634A23F0040313627B681D
:101FFC00DB68002B15D0FFF765FB38610AE0FFF7B3
:10200C0061FB02463B69D31A41F28832934201D9F3
:10201C000323ABE0574B1B6A03F00203002BEED0FB
:10202C0014E0FFF74FFB38610AE0FFF74BFB024669
:10203C003B69D31A41F28832934201D9032395E0CC
:10204C004C4B1B6A03F00203002BEED1FB7D012BE2
:10205C0005D1484BDB69474A23F08053D3617B6839
:10206C00DB69002B00F08180424B5B6803F00C03B2
:10207C00082B61D07B68DB69022B46D13F4B0022D9
:10208C001A60FFF71FFB386108E0FFF71BFB0246E5
:10209C003B69D31A022B01D9032367E0354B1B682C
:1020AC0003F00073002BF0D17B681B6AB3F5803F03
:1020BC0008D1304B5B6823F400327B689B682D4958
:1020CC0013434B602B4B5B6823F474127B68196AC7
:1020DC007B685B6A0B43274913434B60274B0122F8
:1020EC001A60FFF7EFFA386108E0FFF7EBFA0246E7
:1020FC003B69D31A022B01D9032337E01D4B1B6814
:10210C0003F00073002BF0D02FE01C4B00221A6060
:10211C00FFF7D8FA386108E0FFF7D4FA02463B69BA
:10212C00D31A022B01D9032320E0124B1B6803F0B6
:10213C000073002BF0D118E07B68DB69012B01D117
:10214C00012313E00B4B5B68FB60FB6803F48032EC
:10215C007B681B6A9A4206D1FB6803F470127B6899
:10216C005B6A9A4201D0012300E00023184618371D
:10217C00BD4680BD0010024000700040600042422D
:10218C0080B584B000AF786039607B68002B01D1DA
:10219C000123D0E06A4B1B6803F007033A689A42AC
:1021AC0010D9674B1B6823F0070265493B68134342
:1021BC000B60634B1B6803F007033A689A4201D02B
:1021CC000123B8E07B681B6803F00203002B20D0CE
:1021DC007B681B6803F00403002B05D0594B5B682C
:1021EC00584A43F4E06353607B681B6803F00803B0
:1021FC00002B05D0534B5B68524A43F46053536039
:10220C00504B5B6823F0F0027B689B684D4913438D
:10221C004B607B681B6803F00103002B40D07B688C
:10222C005B68012B07D1474B1B6803F40033002B71
:10223C0015D101237FE07B685B68022B07D1414BF2
:10224C001B6803F00073002B09D1012373E03D4B95
:10225C001B6803F00203002B01D101236BE0394B07
:10226C005B6823F003027B685B68364913434B6061
:10227C00FFF728FAF8600AE0FFF724FA0246FB6839
:10228C00D31A41F28832934201D9032353E02D4BE8
:10229C005B6803F00C027B685B689B009A42EBD195
:1022AC00274B1B6803F007033A689A4210D2244B61
:1022BC001B6823F0070222493B6813430B60204B39
:1022CC001B6803F007033A689A4201D0012332E0FD
:1022DC007B681B6803F00403002B08D0194B5B6868
:1022EC0023F4E0627B68DB68164913434B607B6820
:1022FC001B6803F00803002B09D0124B5B6823F416
:10230C0060527B681B69DB000E4913434B6000F085
:10231C0021F802460B4B5B681B0903F00F030A49BB
:10232C00CB5C22FA03F3094A1360094B1B6818466D
:10233C00FFF786F9002318461037BD4680BD00BF55
:10234C000020024000100240202E000898000020BF
:10235C009C00002080B487B000AF0023FB600023FA
:10236C00BB6000237B6100237B6000233B611E4B21
:10237C005B68FB60FB6803F00C03042B02D0082B9A
:10238C0003D027E0194B3B6127E0FB689B0C03F063
:10239C000F03174AD35C7B60FB6803F48033002B7C
:1023AC0010D0114B5B685B0C03F00103114AD35C3A
:1023BC00BB607B680D4A02FB03F2BB68B2FBF3F314
:1023CC007B6104E07B680C4A02FB03F37B617B6955
:1023DC003B6102E0054B3B6100BF3B6918461C3773
:1023EC00BD4680BC704700BF0010024000127A004E
:1023FC00302E0008402E000800093D0080B485B046
:10240C0000AF78600A4B1B680A4AA2FB03235B0AE5
:10241C007A6802FB03F3FB6000BFFB685A1EFA608C
:10242C00002BF9D100BF00BF1437BD4680BC7047EC
:10243C0098000020D34D621080B582B000AF786058
:10244C007B68002B01D1012341E07B6893F83D3080
:10245C00DBB2002B06D17B68002283F83C20786825
:10246C00FFF720F87B68022283F83D207B681A680E
:10247C007B6804331946104600F056FA7B6801223B
:10248C0083F846207B68012283F83E207B6801227A
:10249C0083F83F207B68012283F840207B6801226F
:1024AC0083F841207B68012283F842207B6801225B
:1024BC0083F843207B68012283F844207B68012247
:1024CC0083F845207B68012283F83D2000231846C1
:1024DC000837BD4680BD000080B485B000AF786081
:1024EC007B6893F83D30DBB2012B01D0012335E042
:1024FC007B68022283F83D207B681B68DA687B6866
:10250C001B6842F00102DA607B681B68164A934232
:10251C0009D07B681B68B3F1804F04D07B681B68C3
:10252C00124A934211D17B681B689B6803F0070326
:10253C00FB60FB68062B10D07B681B681A687B68F5
:10254C001B6842F001021A6007E07B681B681A687E
:10255C007B681B6842F001021A600023184614378E
:10256C00BD4680BC704700BF002C014000040040F9
:10257C0080B584B000AF78607B681B68DB68FB605B
:10258C007B681B681B69BB60BB6803F00203002BF4
:10259C0020D0FB6803F00203002B1BD07B681B6868
:1025AC006FF002021A617B6801221A777B681B6844
:1025BC009B6903F00303002B03D0786800F098F9B3
:1025CC0005E0786800F08BF9786800F09AF97B6880
:1025DC0000221A77BB6803F00403002B20D0FB68A1
:1025EC0003F00403002B1BD07B681B686FF0040204
:1025FC001A617B6802221A777B681B689B6903F45B
:10260C004073002B03D0786800F072F905E078680D
:10261C0000F065F9786800F074F97B6800221A778D
:10262C00BB6803F00803002B20D0FB6803F0080301
:10263C00002B1BD07B681B686FF008021A617B684B
:10264C0004221A777B681B68DB6903F00303002BF9
:10265C0003D0786800F04CF905E0786800F03FF999
:10266C00786800F04EF97B6800221A77BB6803F09B
:10267C001003002B20D0FB6803F01003002B1BD0A1
:10268C007B681B686FF010021A617B6808221A774E
:10269C007B681B68DB6903F44073002B03D07868FC
:1026AC0000F026F905E0786800F019F9786800F078
:1026BC0028F97B6800221A77BB6803F00103002B12
:1026CC000CD0FB6803F00103002B07D07B681B6860
:1026DC006FF001021A617868FEF77AFBBB6803F0B1
:1026EC008003002B0CD0FB6803F08003002B07D079
:1026FC007B681B686FF080021A61786800F06FFAD3
:10270C00BB6803F04003002B0CD0FB6803F04003C4
:10271C00002B07D07B681B686FF040021A61786849
:10272C0000F0F8F8BB6803F02003002B0CD0FB681A
:10273C0003F02003002B07D07B681B686FF020028E
:10274C001A61786800F042FA00BF1037BD4680BDB0
:10275C0080B584B000AF786039600023FB737B6870
:10276C0093F83C30012B01D10223B4E07B680122A9
:10277C0083F83C207B68022283F83D207B681B6831
:10278C009B68BB60BB6823F07703BB60BB6823F41A
:10279C007F43BB607B681B68BA689A603B681B68A8
:1027AC00B3F5005F3ED0B3F5005F00F28780B3F560
:1027BC00805F00F08680B3F5805F7FD8702B1AD0D5
:1027CC00702B7BD8602B50D0602B77D8502B3CD003
:1027DC00502B73D8402B58D0402B6FD8302B64D053
:1027EC00302B6BD8202B60D0202B67D8002B5CD0E3
:1027FC00102B5AD062E07B6818683B6899683B687C
:10280C005A683B68DB6800F06AF97B681B689B6858
:10281C00BB60BB6843F07703BB607B681B68BA681E
:10282C009A604FE07B6818683B6899683B685A6807
:10283C003B68DB6800F053F97B681B689A687B681F
:10284C001B6842F480429A603CE07B6818683B68E5
:10285C0059683B68DB681A4600F0CAF87B681B684D
:10286C005021184600F021F92CE07B6818683B6871
:10287C0059683B68DB681A4600F0E8F87B681B680F
:10288C006021184600F011F91CE07B6818683B6861
:10289C0059683B68DB681A4600F0AAF87B681B682D
:1028AC004021184600F001F90CE07B681A683B687F
:1028BC001B681946104600F0F8F803E00123FB737F
:1028CC0000E000BF7B68012283F83D207B6800227A
:1028DC0083F83C20FB7B18461037BD4680BD80B486
:1028EC0083B000AF786000BF0C37BD4680BC70472A
:1028FC0080B483B000AF786000BF0C37BD4680BC9D
:10290C00704780B483B000AF786000BF0C37BD4611
:10291C0080BC704780B483B000AF786000BF0C37C8
:10292C00BD4680BC7047000080B485B000AF7860B5
:10293C0039607B681B68FB607B682B4A934207D02D
:10294C007B68B3F1804F03D07B68284A934208D14F
:10295C00FB6823F07003FB603B685B68FA68134309
:10296C00FB607B68204A934207D07B68B3F1804FB1
:10297C0003D07B681D4A934208D1FB6823F4407353
:10298C00FB603B68DB68FA681343FB60FB6823F071
:10299C0080023B685B691343FB607B68FA681A60D2
:1029AC003B689A687B68DA623B681A687B689A6253
:1029BC007B680D4A934203D13B681A697B681A63A2
:1029CC007B6801225A617B681B6903F00103002BB1
:1029DC0005D07B681B6923F001027B681A6100BF7C
:1029EC001437BD4680BC7047002C014000040040E9
:1029FC0080B487B000AFF860B9607A60FB681B6A7E
:102A0C007B61FB681B6A23F00102FB681A62FB689E
:102A1C009B693B613B6923F0F0033B617B681B01C5
:102A2C003A6913433B617B6923F00A037B617A6942
:102A3C00BB6813437B61FB683A699A61FB687A69EE
:102A4C001A6200BF1C37BD4680BC704780B487B08B
:102A5C0000AFF860B9607A60FB681B6A7B61FB6849
:102A6C001B6A23F01002FB681A62FB689B693B61CE
:102A7C003B6923F470433B617B681B033A69134346
:102A8C003B617B6923F0A0037B61BB681B017A6906
:102A9C0013437B61FB683A699A61FB687A691A6235
:102AAC0000BF1C37BD4680BC704780B485B000AFFA
:102ABC00786039607B689B68FB60FB6823F070036F
:102ACC00FB603A68FB68134343F00703FB607B68C9
:102ADC00FA689A6000BF1437BD4680BC704780B45A
:102AEC0087B000AFF860B9607A603B60FB689B68A8
:102AFC007B617B6923F47F437B613B681A027B68B3
:102B0C001A43BB6813437A6913437B61FB687A6988
:102B1C009A6000BF1C37BD4680BC704780B485B03E
:102B2C0000AF786039607B6893F83C30012B01D1A1
:102B3C00022341E07B68012283F83C207B6802225F
:102B4C0083F83D207B681B685B68FB607B681B68B7
:102B5C009B68BB60FB6823F07003FB603B681B68E1
:102B6C00FA681343FB607B681B68FA685A607B68E1
:102B7C001B68144A934209D07B681B68B3F1804FE1
:102B8C0004D07B681B68104A93420CD1BB6823F0BD
:102B9C008003BB603B685B68BA681343BB607B68AF
:102BAC001B68BA689A607B68012283F83D207B68B9
:102BBC00002283F83C20002318461437BD4680BC05
:102BCC00704700BF002C01400004004080B483B06B
:102BDC0000AF786000BF0C37BD4680BC704780B436
:102BEC0083B000AF786000BF0C37BD4680BC704727
:102BFC00014B1868704700BFA400002070B5002678
:102C0C000C4D0D4C641BA410A64209D100F0F6F833
:102C1C0000260A4D0A4C641BA410A64205D170BDB7
:102C2C0055F8043B98470136EEE755F8043B9847B6
:102C3C000136F2E7442E0008442E0008442E00080A
:102C4C00482E0008024B0146186800F05FB800BF20
:102C5C00A4000020024B0146186800F00BB800BF1E
:102C6C00A400002003460244934200D1704703F8AD
:102C7C00011BF9E738B50546002943D051F8043C4F
:102C8C000C1F002BB8BFE41800F0AAF81E4A1368FA
:102C9C00104633B9636014602846BDE8384000F034
:102CAC00A5B8A3420AD921686218934201BF1A68D9
:102CBC005B685218226063600460EDE71A465B683B
:102CCC000BB1A342FAD911685018A0420BD120685D
:102CDC000144501883421160DED118685B680144CE
:102CEC0011605360D8E702D90C232B60D4E720681D
:102CFC0021188B4201BF19685B6809182160636059
:102D0C005460C9E738BD00BF84010020F8B5CD1C64
:102D1C0025F0030508350C2D38BF0C25002D064673
:102D2C0001DBA94203D90C2333600020F8BD00F06D
:102D3C0057F821490A6814469CB9204F3B6823B9BF
:102D4C002146304600F03CF838602946304600F009
:102D5C0037F8431C23D10C233046336000F046F87F
:102D6C00E3E723685B1B17D40B2B03D923601C44AC
:102D7C00256004E06368A2420CBF0B6053603046D0
:102D8C0000F034F804F10B00231D20F00700C21AE8
:102D9C00CCD01B1AA350C9E722466468CCE7C41CEC
:102DAC0024F00304A042E3D0211A304600F008F8C6
:102DBC000130DDD1CFE700BF840100208801002065
:102DCC0038B50023054D044608462B60FEF7C0FBC2
:102DDC00431C02D12B6803B1236038BD34020020A0
:102DEC00014800F009B800BF3C020020014800F087
:102DFC0004B800BF3C02002070477047F8B500BF14
:102E0C00F8BC08BC9E467047F8B500BFF8BC08BCBF
:042E1C009E46704717
:102E2000000000000000000001020304060708097A
:102E300002030405060708090A0B0C0D0E0F1010FB
:042E4000010200008B
:042E44003101000850
:042E48000D01000870
:102E4C000008014000080140000801400200040095
:102E5C000800000005000000020000000300000054
:102E6C00000C0140000C0140000C0140000C014022
:102E7C00000C0140000C0140000C0140010002005C
:102E8C0004000800100020004000000000000000BA
:102E9C00000001010000010101010000010000011E
:102EAC000000000000010100010000010100000011
:102EBC000100000100000001000000000000000003
:102ECC0001010101000000000000000000000001F1
:102EDC00000000000A00000000127A001000000040
:102EEC0001000000A800002000000000000000000D
:102EFC0000000000000000000000000000000000C6
:102F0C0000000000000000000000000000000000B5
:102F1C0000000000000000000000000000000000A5
:102F2C000000000000000000000000000000000095
:102F3C000000000000000000000000000000000085
:082F4C0000000000000000007D
:04000005080015D505
:00000001FF
