:020000040800F2
:1000000000280020E1140008ED0E0008F30E00089F
:10001000F90E0008FF0E0008050F000800000000A0
:100020000000000000000000000000000B0F0008AE
:10003000170F000800000000230F00082F0F000812
:100040002915000829150008291500082915000898
:100050002915000829150008291500082915000888
:100060002915000829150008291500082915000878
:100070002915000829150008291500082915000868
:100080002915000829150008291500082915000858
:100090002915000829150008291500082915000848
:1000A0002915000829150008291500082915000838
:1000B0003D0F000829150008000000002915000860
:1000C00029150008000000000000000029150008A4
:1000D0000000000029150008291500080000000094
:1000E000291500082915000829150008000000003E
:1000F0000000000000000000000000000000000000
:0C01000000000000000000005FF808F1A3
:10010C0010B5054C237833B9044B13B10448AFF345
:10011C0000800123237010BDA4000020000000000B
:10012C00282B000808B5034B1BB103490348AFF358
:10013C00008008BD00000000A8000020282B00084B
:10014C0080B483B000AF00237B601BE0194A7B684E
:10015C00012142F82310184A7B68012142F8231030
:10016C00164A7B68012142F82310154A7B6801214D
:10017C0042F82310134A7B68C82142F823107B688D
:10018C0001337B607B68022BE0DD00233B6007E0E2
:10019C000D4A3B68002142F823103B6801333B6059
:1001AC003B68022BF4DD00BF00BF0C37BD4680BCA2
:1001BC00704700BF200100202C01002050010020BE
:1001CC0014010020380100204401002080B483B0C9
:1001DC0000AF7860094A7B6852F82330012B06D1B6
:1001EC00064A7B68002142F82310012300E000231B
:1001FC0018460C37BD4680BC704700BF4401002038
:10020C0080B582B000AF00237B6078E0404A7B6809
:10021C0052F823203F497B6841F823203E4A7B68F3
:10022C0052F823203A497B6841F823203B4A7B68EB
:10023C0052F823203A497B6831F81330194610469E
:10024C0001F058FC03461946334A7B6842F82310E8
:10025C00304A7B6852F823202D497B6851F82330B3
:10026C009A4249D12A4A7B6852F823202A497B6852
:10027C0051F823309A423FD12A4A7B6852F8232006
:10028C0025497B6851F823309A4218D0224A7B6862
:10029C0052F8232023497B6841F823201E4A7B68AF
:1002AC0052F82330002B27D11F4A7B68012142F8DA
:1002BC0023101E4A7B68C82142F823101CE01B4AFD
:1002CC007B6852F823305A1E18497B6841F823206A
:1002DC00164A7B6852F82330002B0DDC0E4A7B68E3
:1002EC0052F82330002B0CBF01230023DBB219463C
:1002FC000C4A7B6842F823107B6801337B607B6877
:10030C00022B83DD00BF00BF0837BD4680BD00BF98
:10031C002C010020200100205001002000000020B2
:10032C000C000020140100204401002038010020A2
:10033C0080B500AFAD4B1B68013B0B2B00F24A8123
:10034C0001A252F823F000BF8503000885030008C2
:10035C0085030008E1050008E1050008E105000837
:10036C00E1050008E1050008E1050008F5030008B7
:10037C00A1040008450500089D4B1B79002B06D0F5
:10038C004FF47A71042000F007FD00F009FC984B43
:10039C009B79002B06D04FF47A71062000F0FCFC00
:1003AC0000F05CFC0020FFF711FF0346012B40F02E
:1003BC0013818E4B0A221A608E4B0A221A6000217E
:1003CC00002000F0E9FC42F21071012000F0E4FC86
:1003DC00C821022000F0E0FC874B1B68184600F097
:1003EC00A5FB00F0C9FBF7E00021C82000F068FE77
:1003FC00824B00229A60814B0122DA607C4B5B7845
:10040C00002B05D10220FFF7E1FE0346002B09D09B
:10041C00764B00221A60774B00221A6000210220D2
:10042C0000F0BAFC0120FFF7D1FE0346012B17D1D7
:10043C00714B1B680133704A13606F4B1B68632B45
:10044C0002DD6D4B01221A606B4B1B68184600F0E5
:10045C006DFB00F091FB42F21071012000F09CFC4E
:10046C000020FFF7B3FE0346012B40F0B7805F4B33
:10047C000B221A605F4B0B221A6042F210710120A2
:10048C0000F08AFC5E4B1B68184600F04FFB00F036
:10049C0073FBA3E00221C82000F012FE574B002290
:1004AC009A60564B0222DA60514B5B78002B05D1D7
:1004BC000220FFF78BFE0346002B06D04B4B00228D
:1004CC001A600021022000F067FC0120FFF77EFE7D
:1004DC000346012B17D14A4B1B680133484A136062
:1004EC00474B1B68632B02DD454B01221A60444BC2
:1004FC001B68184600F01AFB00F03EFB42F210712C
:10050C00012000F049FC0020FFF760FE0346012BA0
:10051C0066D1364B0C221A60364B0C221A6042F212
:10052C001071012000F038FC364B1B68184600F0A7
:10053C00FDFA00F021FB53E00121C82000F0C0FDC2
:10054C002E4B00229A602D4B0322DA60284B5B78ED
:10055C00002B05D10220FFF739FE0346002B09D0F2
:10056C00224B00221A60234B00221A600021022029
:10057C0000F012FC0120FFF729FE0346012B17D1D6
:10058C00204B1B6801331F4A13601E4B1B68092B41
:10059C0002DD1C4B01221A601A4B1B68184600F036
:1005AC00C5FA00F0E9FA42F21071012000F0F4FBF8
:1005BC000020FFF70BFE0346012B13D10B4B00223F
:1005CC001A600C4B00221A6042F21071012000F0EC
:1005DC00E3FB07E000BF06E000BF04E000BF02E061
:1005EC0000BF00E000BF00BF80BD00BFC000002006
:1005FC0008010020C400002090000020D000002042
:10060C00980000209400002080B500AF00F088FF17
:10061C0000F03AF800F0C0F800F072F8144801F05D
:10062C00C5FE144B00221A60FFF78AFD00F060FA39
:10063C004FF4FA71032000F0AFFB00F021F96422B3
:10064C0000210D4800F028F9642232210B4800F0FB
:10065C0023F9642264210A4800F01EF94FF4FA725F
:10066C009621084800F018F900F0DAF9FCE700BF11
:10067C005C010020C0000020591200089D130008E6
:10068C003D030008790D000880B590B000AF07F16C
:10069C00180328220021184602F038FA3B1D0022CC
:1006AC001A605A609A60DA601A610223BB610123F6
:1006BC00BB621023FB6200237B6307F1180318460F
:1006CC0001F048FA0346002B01D000F0D3F80F23B9
:1006DC007B600023BB600023FB6000233B61002395
:1006EC007B613B1D0021184601F0B4FC0346002B36
:1006FC0001D000F0BFF800BF4037BD4680BD000000
:10070C0080B586B000AF07F1080300221A605A606A
:10071C009A60DA603B4600221A605A601D4B4FF01B
:10072C0080421A601B4B41F63F725A60194B0022F3
:10073C009A60184B0922DA60164B00221A61154B8D
:10074C0000229A61134801F0E1FD0346002B01D011
:10075C0000F090F84FF48053BB6007F10803194682
:10076C000C4801F05FFF0346002B01D000F082F82B
:10077C0000233B6000237B603B461946054802F092
:10078C0037F90346002B01D000F074F800BF18377E
:10079C00BD4680BD5C01002080B586B000AF07F17E
:1007AC00080300221A605A609A60DA60274B9B6932
:1007BC00264A43F004039361244B9B6903F0040322
:1007CC007B607B68214B9B69204A43F00803936153
:1007DC001E4B9B6903F008033B603B6800224FF201
:1007EC00E0711B4801F09DF900227F21194801F0AE
:1007FC0098F90E23BB600023FB6001233B6107F1DA
:10080C0008031946124800F0FBFF4FF2E073BB607F
:10081C000123FB6000233B6102237B6107F108038A
:10082C0019460B4800F0ECFF7F23BB600123FB60F3
:10083C0000233B6102237B6107F10803194605483D
:10084C0000F0DEFF00BF1837BD4680BD001002402F
:10085C0000080140000C014080B582B000AF786008
:10086C0000F0B8FAFFF7CCFC00F07AF800BF0837BC
:10087C00BD4680BD80B400AF72B600BFFEE700007D
:10088C0080B400AF034B00221A7000BFBD4680BC81
:10089C00704700BFC800002080B485B000AFF8607E
:1008AC00B9607A60BB682B4AA2FB0323DB08BB60F0
:1008BC007B68284AA2FB0323DB087B60264B1B7852
:1008CC00272B42D8244B1B781946244A0B469B00F5
:1008DC000B449B001344FA681A601F4B1B78194693
:1008EC001E4A0B469B000B449B0013440433BA680E
:1008FC001A60194B1B781946184A0B469B000B447F
:10090C009B00134408337A681A60134B1B78194602
:10091C00124A0B469B000B449B0013440C330022E1
:10092C001A700D4B1A780C4B1B78194610460B4A53
:10093C000B469B000B449B00134410331860064B72
:10094C001B780133DAB2044B1A7000BF1437BD4662
:10095C0080BC7047CDCCCCCCC8000020A4010020BA
:10096C0080B483B000AF00237B6048E02A497A68EA
:10097C0013469B0013449B000B4404331B68002B51
:10098C0013D025497A6813469B0013449B000B44F3
:10099C0004331B68591E20487A6813469B00134485
:1009AC009B0003440433196026E01B497A68134604
:1009BC009B0013449B000B440833196816487A6853
:1009CC0013469B0013449B000344043319601249E3
:1009DC007A6813469B0013449B000B440C331B7822
:1009EC000133D8B20C497A6813469B0013449B0020
:1009FC000B440C3302461A707B6801337B60074B47
:100A0C001B781A467B689342B0DB00BF00BF0C37E3
:100A1C00BD4680BC704700BFA4010020C800002068
:100A2C0080B582B000AF00237B6020E015497A6866
:100A3C0013469B0013449B000B440C331B78002B78
:100A4C0012D010497A6813469B0013449B000B4448
:100A5C000C3300221A700B497A6813469B0013441E
:100A6C009B000B441B6898477B6801337B60064BEB
:100A7C001B781A467B689342D8DB00BF00BF08374F
:100A8C00BD4680BDA4010020C800002090B585B0F3
:100A9C0000AF78607B68002B02DA7B68092B1DDCC9
:100AAC000023FB6016E00F4AFB6852F823000E4A45
:100ABC00FB6832F813100D4C7A681346DB009B1A56
:100ACC00E218FB6813441B781A4601F02AF8FB68FD
:100ADC000133FB60FB68062BE5DD00E000BF14373B
:100AEC00BD4690BD140000203000002040000020C6
:100AFC0080B500AF01224FF480510B4801F011F882
:100B0C0001224FF40051084801F00BF801224FF478
:100B1C008041054801F005F801224FF400410248DC
:100B2C0000F0FFFF00BF80BD0008014080B483B01F
:100B3C0000AF78607B680D4A82FB03129210DB17C2
:100B4C00D31A0B4A13607968084B83FB01239A1064
:100B5C00CB17D21A13469B0013445B00CA1A054BE1
:100B6C001A6000BF0C37BD4680BC7047676666666E
:100B7C00D4040020CC04002080B400AF054B1B68CB
:100B8C00054A1360054B1B68034A536000BFBD4602
:100B9C0080BC7047D4040020D0000020CC0400207E
:100BAC0080B500AFFFF7E8FF0D4B1B68002B04DD91
:100BBC000B4B1B68013B0A4A1360094B1B68002B4B
:100BCC000BDC084B1B68002B07DD064B1B68013B3D
:100BDC00044A1360024B09221A6000BF80BD00BF9B
:100BEC00CC040020D404002080B483B000AF786023
:100BFC007B680D4A82FB03129210DB17D31A0B4A47
:100C0C0013607968084B83FB01239A10CB17D21A17
:100C1C0013469B0013445B00CA1A054B1A6000BFB5
:100C2C000C37BD4680BC704767666666C8040020FA
:100C3C00D004002080B400AF054B1B68054A9360BC
:100C4C00054B1B68034AD36000BFBD4680BC704790
:100C5C00C8040020D0000020D004002080B500AFD4
:100C6C00FFF7E8FF0D4B1B68002B04DD0B4B1B68DB
:100C7C00013B0A4A1360094B1B68002B0BDC084B29
:100C8C001B68002B07DD064B1B68013B044A1360F5
:100C9C00024B09221A6000BF80BD00BFD0040020A7
:100CAC00C804002080B582B000AF78607B68032B4D
:100CBC0052D801A252F823F0D50C0008F90C000808
:100CCC001D0D0008410D0008264B1B681846FFF748
:100CDC00DDFE00224FF48051234800F022FF012258
:100CEC004FF40041204800F01CFF36E01D4B5B68C0
:100CFC001846FFF7CBFE00224FF400511A4800F0C3
:100D0C0010FF01224FF48051174800F00AFF24E035
:100D1C00144B9B681846FFF7B9FE00224FF4804134
:100D2C00114800F0FEFE01224FF400510E4800F075
:100D3C00F8FE12E00B4BDB681846FFF7A7FE00220B
:100D4C004FF40041084800F0ECFE01224FF48041C2
:100D5C00054800F0E6FE00E000BF00BF0837BD46C6
:100D6C0080BD00BFD00000200008014080B500AF5E
:100D7C00084B1B68032B02DD064B00221A60054B47
:100D8C001B685A1C03490A601846FFF78BFF00BF0B
:100D9C0080BD00BFCC00002080B483B000AF786071
:100DAC003960094B1B683A6892FBF3F207497B6880
:100DBC0041F82320064A7B68134400221A7000BFB6
:100DCC000C37BD4680BC704788000020E000002036
:100DDC000801002080B483B000AF00237B601CE0CE
:100DEC00124A7B6852F82330002B13DD0F4A7B68C4
:100DFC0052F823305A1E0D497B6841F823200B4AC8
:100E0C007B6852F82330002B04DC094A7B681344BE
:100E1C0001221A707B6801337B607B68092BDFDD54
:100E2C0000BF00BF0C37BD4680BC7047E0000020FF
:100E3C000801002080B485B000AF154B9B69144AA3
:100E4C0043F001039361124B9B6903F00103BB60F8
:100E5C00BB680F4BDB690E4A43F08053D3610C4BDC
:100E6C00DB6903F080537B607B680A4B5B68FB603B
:100E7C00FB6823F0E063FB60FB6843F08063FB607E
:100E8C00044AFB68536000BF1437BD4680BC7047F2
:100E9C00001002400000014080B584B000AF7860C3
:100EAC007B681B68B3F1804F13D10C4BDB690B4A89
:100EBC0043F00103D361094BDB6903F00103FB60D1
:100ECC00FB68002200211C2000F063FC1C2000F0B9
:100EDC007CFC00BF1037BD4680BD00BF0010024037
:100EEC0080B400AFFEE780B400AFFEE780B400AF83
:100EFC00FEE780B400AFFEE780B400AFFEE780B43D
:100F0C0000AF00BFBD4680BC704780B400AF00BFCF
:100F1C00BD4680BC704780B400AF00BFBD4680BCEE
:100F2C00704780B500AF00F041FB00BF80BD0000F2
:100F3C0080B500AF024801F085FA00BF80BD00BF4C
:100F4C005C01002080B400AF00BFBD4680BC704780
:100F5C0080B500AF00222021074800F0E2FD0122FD
:100F6C004021054800F0DDFD01228021024800F0FF
:100F7C00D8FD00BF80BD00BF0008014080B500AFA8
:100F8C0001222021074800F0CCFD00224021054819
:100F9C0000F0C7FD01228021024800F0C2FD00BF15
:100FAC0080BD00BF0008014080B500AF01222021A8
:100FBC00074800F0B6FD01224021054800F0B1FDC4
:100FCC0000228021024800F0ACFD00BF80BD00BFB4
:100FDC000008014080B500AF00224FF48071084832
:100FEC0000F09FFD01224FF40071054800F099FDBF
:100FFC0001224FF48061024800F093FD00BF80BDD8
:10100C000008014080B500AF01224FF48071084800
:10101C0000F087FD00224FF40071054800F081FDBF
:10102C0001224FF48061024800F07BFD00BF80BDBF
:10103C000008014080B500AF01224FF480710848D0
:10104C0000F06FFD01224FF40071054800F069FDBE
:10105C0000224FF48061024800F063FD00BF80BDA8
:10106C000008014080B500AF01222021074800F0A4
:10107C0058FD01224021054800F053FD012280213A
:10108C00024800F04EFD00BF80BD00BF00080140CB
:10109C0080B500AF01224FF48071084800F041FD8B
:1010AC0001224FF40071054800F03BFD01224FF482
:1010BC008061024800F035FD00BF80BD0008014092
:1010CC0080B582B000AF78600B46FB705C4B1B7830
:1010DC00002B02D0012B77D0AEE0FB78002B21D176
:1010EC0000222021574800F01CFD00224FF4807193
:1010FC00544800F016FD01224021524800F011FD29
:10110C0001224FF400714F4800F00BFD01228021A9
:10111C004C4800F006FD01224FF48061494800F074
:10112C0000FD45E0FB78012B21D10122202145480F
:10113C0000F0F7FC01224FF48071424800F0F1FC02
:10114C00002240213F4800F0ECFC00224FF40071DB
:10115C003C4800F0E6FC012280213A4800F0E1FC1A
:10116C0001224FF48061374800F0DBFC20E00122C3
:10117C002021344800F0D5FC01224FF48071314815
:10118C0000F0CFFC012240212E4800F0CAFC0122C5
:10119C004FF400712B4800F0C4FC00228021294838
:1011AC0000F0BFFC00224FF48061264800F0B9FC2F
:1011BC00254B9B78002B3CD0214B01221A7079686F
:1011CC000220FFF7E9FD34E0FB78002B0BD1012264
:1011DC0020211C4800F0A5FC01224FF48071194815
:1011EC0000F09FFC19E0FB78012B0BD10122402170
:1011FC00144800F096FC01224FF40071114800F0E5
:10120C0090FC0AE0012280210E4800F08AFC0122A9
:10121C004FF480610B4800F084FC0B4B9B78002B47
:10122C0009D0074B00221A7079680220FFF7B4FD31
:10123C0001E000BF00E000BF00BF0837BD4680BD25
:10124C0012010020000801400801002080B500AF09
:10125C004A4B1B68032B00F2878001A252F823F043
:10126C007D120008B512000835130008F5120008AD
:10127C00FFF7F8FE424B1B684FF47A7202FB03F344
:10128C0019460020FFF788FD3D4B1B681846FFF7F9
:10129C004DFCFFF785FC4FF47A710420FFF77CFDC1
:1012AC00364B01221A6066E0FFF752FE354B1B7875
:1012BC00002B5BD0314B03221A60334B1B684FF46D
:1012CC007A7202FB03F319460020FFF765FD2E4BE3
:1012DC001B681846FFF72AFCFFF762FC4FF47A7183
:1012EC000420FFF759FD41E0FFF75EFE254B1B780C
:1012FC00002B3DD0214B02221A60244B1B684FF46B
:10130C007A7202FB03F319460020FFF745FD1F4BD1
:10131C001B681846FFF70AFCFFF742FC4FF47A7182
:10132C000420FFF739FD23E0FFF728FE154B1B784F
:10133C00002B1FD0114B01221A60114B1B684FF46C
:10134C007A7202FB03F319460020FFF725FD0C4BC4
:10135C001B681846FFF7EAFBFFF722FC4FF47A7183
:10136C000420FFF719FD05E000BF04E000BF02E018
:10137C0000BF00E000BF00BF80BD00BFC000002068
:10138C00900000200801002098000020940000200C
:10139C0080B500AF4A4B1B68032B00F2878001A27B
:1013AC0052F823F0C1130008F9130008791400084F
:1013BC0039140008FFF76CFE424B1B684FF47A722D
:1013CC0002FB03F319460520FFF7E6FC3D4B1B68B7
:1013DC001846FFF709FCFFF741FC4FF47A71062021
:1013EC00FFF7DAFC364B03221A6066E0FFF7F2FDDA
:1013FC00354B5B79002B5BD0314B03221A60314BA0
:10140C001B684FF47A7202FB03F319460520FFF7B1
:10141C00C3FC2C4B1B681846FFF7E6FBFFF71EFCC2
:10142C004FF47A710620FFF7B7FC41E0FFF702FE9C
:10143C00254B5B79002B3DD0214B02221A60234BAC
:10144C001B684FF47A7202FB03F319460520FFF771
:10145C00A3FC1E4B1B681846FFF7C6FBFFF7FEFBF1
:10146C004FF47A710620FFF797FC23E0FFF7CAFDD3
:10147C00154B5B79002B1FD0114B01221A60144BBA
:10148C001B684FF47A7202FB03F319460520FFF731
:10149C0083FC0F4B1B681846FFF7A6FBFFF7DEFB20
:1014AC004FF47A710620FFF777FC05E000BF04E0EB
:1014BC0000BF02E000BF00E000BF00BF80BD00BF66
:1014CC00C400002098000020080100209400002097
:1014DC0090000020FFF736FD0B480C490C4A002306
:1014EC0002E0D458C4500433C4188C42F9D3094ACE
:1014FC00094C002301E013600432A242FBD301F03B
:10150C00E1FAFFF781F8704700000020A4000020EA
:10151C006C2B0008A4000020DC040020FEE7000077
:10152C0080B500AF084B1B68074A43F010031360EB
:10153C00032000F023F90F2000F008F8FFF77AFCE5
:10154C000023184680BD00BF0020024080B582B049
:10155C0000AF7860124B1A68124B1B7819464FF487
:10156C007A73B3FBF1F3B2FBF3F3184600F03BF9DB
:10157C000346002B01D001230EE07B680F2B0AD809
:10158C00002279684FF0FF3000F003F9064A7B68BF
:10159C001360002300E0012318460837BD4680BDC8
:1015AC008C000020A00000209C00002080B400AF24
:1015BC00054B1B781A46054B1B681344034A1360F2
:1015CC0000BFBD4680BC7047A0000020D80400209E
:1015DC0080B400AF024B1B681846BD4680BC7047F8
:1015EC00D804002080B485B000AF78607B6803F02D
:1015FC000703FB600C4BDB68BB60BA684FF6FF035C
:10160C001340BB60FB681A02BB68134343F0BF6313
:10161C0043F40033BB60044ABB68D36000BF14378B
:10162C00BD4680BC704700BF00ED00E080B400AF49
:10163C00044BDB681B0A03F007031846BD4680BC4D
:10164C00704700BF00ED00E080B483B000AF0346EC
:10165C00FB7197F90730002B0BDBFB7903F01F02B2
:10166C00064997F907305B09012000FA02F241F8AC
:10167C00232000BF0C37BD4680BC704700E100E062
:10168C0080B483B000AF03463960FB7197F9073023
:10169C00002B0ADB3B68DAB20C4997F907301201D0
:1016AC00D2B20B4483F800230AE03B68DAB2084953
:1016BC00FB7903F00F03043B1201D2B20B441A76F0
:1016CC0000BF0C37BD4680BC704700BF00E100E096
:1016DC0000ED00E080B489B000AFF860B9607A60CA
:1016EC00FB6803F00703FB61FB69C3F10703042BE1
:1016FC0028BF0423BB61FB690433062B02D9FB69A9
:10170C00033B00E000237B614FF0FF32BB6902FA20
:10171C0003F3DA43BB681A407B699A404FF0FF3100
:10172C007B6901FA03F3D9437B680B4013431846DA
:10173C002437BD4680BC704780B582B000AF78605E
:10174C007B68013BB3F1807F01D301230FE00A4A90
:10175C007B68013B53600F214FF0FF30FFF790FF88
:10176C00054B00229A60044B07221A60002318468E
:10177C000837BD4680BD00BF10E000E080B582B0E8
:10178C0000AF78607868FFF72DFF00BF0837BD46C3
:10179C0080BD80B586B000AF0346B9607A60FB733C
:1017AC0000237B61FFF742FF78617A68B96878693A
:1017BC00FFF790FF024697F90F3011461846FFF7D6
:1017CC005FFF00BF1837BD4680BD80B582B000AF4B
:1017DC000346FB7197F907301846FFF735FF00BF3A
:1017EC000837BD4680BD80B582B000AF78607868A0
:1017FC00FFF7A2FF034618460837BD4680BD000020
:10180C0080B48BB000AF7860396000237B6200231A
:10181C003B6248E101227B6A02FA03F3FB613B68FD
:10182C001B68FA691340BB61BA69FB699A4240F0C4
:10183C0037813B685B68A34A93425ED0A14A9342CE
:10184C0075D8A14A934258D09F4A93426FD89F4A69
:10185C00934252D09D4A934269D89D4A93424CD0B0
:10186C009B4A934263D89B4A934246D0994A9342EF
:10187C005DD8122B2AD8122B59D801A252F823F07A
:10188C0007190008E1180008F318000835190008BA
:10189C003B1900083B1900083B1900083B190008CC
:1018AC003B1900083B1900083B1900083B190008BC
:1018BC003B1900083B1900083B1900083B190008AC
:1018CC003B190008E9180008FD180008824A9342E9
:1018DC0013D02CE03B68DB683B6229E03B68DB689B
:1018EC0004333B6224E03B68DB6808333B621FE057
:1018FC003B68DB680C333B621AE03B689B68002B4F
:10190C0002D104233B6213E03B689B68012B05D199
:10191C0008233B627B68FA691A6109E008233B6281
:10192C007B68FA695A6103E000233B6200E000BF68
:10193C00BB69FF2B01D87B6801E07B6804337B61BA
:10194C00BB69FF2B02D87B6A9B0002E07B6A083BD9
:10195C009B003B617B691A680F213B6901FA03F319
:10196C00DB431A40396A3B6901FA03F31A437B697A
:10197C001A603B685B6803F08053002B00F090808A
:10198C00564B9B69554A43F001039361534B9B693A
:10199C0003F00103BB60BB68514A7B6A9B080233AE
:1019AC0052F82330FB607B6A03F003039B000F2289
:1019BC0002FA03F3DB43FA681340FB607B68494A85
:1019CC0093420DD07B68484A934207D07B68474AC4
:1019DC00934201D1022304E0032302E0012300E03F
:1019EC0000237A6A02F0030292009340FA681343D0
:1019FC00FB603B497B6A9B080233FA6841F8232061
:101A0C003B685B6803F48013002B06D0384B9A6854
:101A1C003749BB6913438B6006E0354B9A68BB6949
:101A2C00DB43334913408B603B685B6803F4001362
:101A3C00002B06D02E4BDA682D49BB691343CB60C3
:101A4C0006E02B4BDA68BB69DB4329491340CB60BA
:101A5C003B685B6803F40033002B06D0244B5A68B8
:101A6C002349BB6913434B6006E0214B5A68BB69A1
:101A7C00DB431F4913404B603B685B6803F48033C6
:101A8C00002B06D01A4B1A681949BB6913430B601B
:101A9C0006E0174B1A68BB69DB43154913400B6012
:101AAC007B6A01337B623B681A687B6A22FA03F318
:101ABC00002B7FF4AFAE00BF00BF2C37BD4680BCFF
:101ACC00704700BF000032100000311000002210DF
:101ADC000000211000001210000011100010024034
:101AEC000000014000080140000C014000100140C2
:101AFC000004014080B485B000AF78600B467B8059
:101B0C007B689A687B881340002B02D00123FB73FF
:101B1C0001E00023FB73FB7B18461437BD4680BCE9
:101B2C00704780B483B000AF78600B467B8013465F
:101B3C007B707B78002B03D07A887B681A6103E07A
:101B4C007B881A047B681A6100BF0C37BD4680BCC9
:101B5C007047000080B586B000AF78607B68002BC2
:101B6C0001D101236CE27B681B6803F00103002B9D
:101B7C0000F08780924B5B6803F00C03042B0CD0B5
:101B8C008F4B5B6803F00C03082B12D18C4B5B68FA
:101B9C0003F48033B3F5803F0BD1894B1B6803F4FE
:101BAC000033002B6CD07B685B68002B68D1012361
:101BBC0046E27B685B68B3F5803F06D1804B1B68BF
:101BCC007F4A43F4803313602EE07B685B68002B04
:101BDC000CD17B4B1B687A4A23F480331360784B0F
:101BEC001B68774A23F4802313601DE07B685B68D5
:101BFC00B3F5A02F0CD1724B1B68714A43F48023B0
:101C0C0013606F4B1B686E4A43F4803313600BE018
:101C1C006B4B1B686A4A23F480331360684B1B6858
:101C2C00674A23F4802313607B685B68002B13D016
:101C3C00FFF7CEFC386108E0FFF7CAFC02463B69AF
:101C4C00D31A642B01D90323FAE15D4B1B6803F40F
:101C5C000033002BF0D014E0FFF7BAFC386108E039
:101C6C00FFF7B6FC02463B69D31A642B01D9032358
:101C7C00E6E1534B1B6803F40033002BF0D100E07A
:101C8C0000BF7B681B6803F00203002B63D04C4B36
:101C9C005B6803F00C03002B0BD0494B5B6803F023
:101CAC000C03082B1CD1464B5B6803F48033002BD0
:101CBC0016D1434B1B6803F00203002B05D07B6845
:101CCC001B69012B01D00123BAE13D4B1B6823F0AA
:101CDC00F8027B685B69DB00394913430B603AE01F
:101CEC007B681B69002B20D0364B01221A60FFF752
:101CFC006FFC386108E0FFF76BFC02463B69D31AB6
:101D0C00022B01D903239BE12D4B1B6803F002032B
:101D1C00002BF0D02A4B1B6823F0F8027B685B6920
:101D2C00DB00274913430B6015E0264B00221A6099
:101D3C00FFF74EFC386108E0FFF74AFC02463B69AE
:101D4C00D31A022B01D903237AE11D4B1B6803F034
:101D5C000203002BF0D17B681B6803F00803002BF7
:101D6C003AD07B689B69002B19D0174B01221A6063
:101D7C00FFF72EFC386108E0FFF72AFC02463B69AE
:101D8C00D31A022B01D903235AE10D4B5B6A03F0E2
:101D9C000203002BF0D0012000F09AFA1CE00A4B51
:101DAC0000221A60FFF714FC38610FE0FFF710FCFB
:101DBC0002463B69D31A022B08D9032340E100BF2A
:101DCC000010024000004242800442429E4B5B6A7B
:101DDC0003F00203002BE9D17B681B6803F00403BA
:101DEC00002B00F0A6800023FB75974BDB6903F0FA
:101DFC008053002B0DD1944BDB69934A43F08053F5
:101E0C00D361914BDB6903F08053BB60BB6801234A
:101E1C00FB758E4B1B6803F48073002B18D18B4B16
:101E2C001B688A4A43F480731360FFF7D1FB386157
:101E3C0008E0FFF7CDFB02463B69D31A642B01D9AE
:101E4C000323FDE0814B1B6803F48073002BF0D05F
:101E5C007B68DB68012B06D17B4B1B6A7A4A43F00B
:101E6C00010313622DE07B68DB68002B0CD1764BF1
:101E7C001B6A754A23F001031362734B1B6A724A87
:101E8C0023F0040313621CE07B68DB68052B0CD188
:101E9C006D4B1B6A6C4A43F0040313626A4B1B6A5A
:101EAC00694A43F0010313620BE0674B1B6A664AF5
:101EBC0023F001031362644B1B6A634A23F004038F
:101ECC0013627B68DB68002B15D0FFF781FB386150
:101EDC000AE0FFF77DFB02463B69D31A41F28832D8
:101EEC00934201D90323ABE0574B1B6A03F0020367
:101EFC00002BEED014E0FFF76BFB38610AE0FFF724
:101F0C0067FB02463B69D31A41F28832934201D9EE
:101F1C00032395E04C4B1B6A03F00203002BEED11C
:101F2C00FB7D012B05D1484BDB69474A23F08053DD
:101F3C00D3617B68DB69002B00F08180424B5B68CE
:101F4C0003F00C03082B61D07B68DB69022B46D1B4
:101F5C003F4B00221A60FFF73BFB386108E0FFF7AC
:101F6C0037FB02463B69D31A022B01D9032367E0E6
:101F7C00354B1B6803F00073002BF0D17B681B6A98
:101F8C00B3F5803F08D1304B5B6823F400327B689B
:101F9C009B682D4913434B602B4B5B6823F47412E5
:101FAC007B68196A7B685B6A0B43274913434B6058
:101FBC00274B01221A60FFF70BFB386108E0FFF793
:101FCC0007FB02463B69D31A022B01D9032337E0E6
:101FDC001D4B1B6803F00073002BF0D02FE01C4B43
:101FEC0000221A60FFF7F4FA386108E0FFF7F0FA04
:101FFC0002463B69D31A022B01D9032320E0124B72
:10200C001B6803F00073002BF0D118E07B68DB69D0
:10201C00012B01D1012313E00B4B5B68FB60FB68C8
:10202C0003F480327B681B6A9A4206D1FB6803F486
:10203C0070127B685B6A9A4201D0012300E0002396
:10204C0018461837BD4680BD001002400070004095
:10205C006000424280B584B000AF786039607B6824
:10206C00002B01D10123D0E06A4B1B6803F007035E
:10207C003A689A4210D9674B1B6823F007026549EE
:10208C003B6813430B60634B1B6803F007033A6810
:10209C009A4201D00123B8E07B681B6803F002036D
:1020AC00002B20D07B681B6803F00403002B05D0A9
:1020BC00594B5B68584A43F4E06353607B681B6878
:1020CC0003F00803002B05D0534B5B68524A43F4D2
:1020DC0060535360504B5B6823F0F0027B689B6845
:1020EC004D4913434B607B681B6803F00103002BC5
:1020FC0040D07B685B68012B07D1474B1B6803F40E
:10210C000033002B15D101237FE07B685B68022B29
:10211C0007D1414B1B6803F00073002B09D101233D
:10212C0073E03D4B1B6803F00203002B01D101232C
:10213C006BE0394B5B6823F003027B685B683649C4
:10214C0013434B60FFF744FAF8600AE0FFF740FADC
:10215C000246FB68D31A41F28832934201D9032319
:10216C0053E02D4B5B6803F00C027B685B689B00B3
:10217C009A42EBD1274B1B6803F007033A689A424B
:10218C0010D2244B1B6823F0070222493B681343EF
:10219C000B60204B1B6803F007033A689A4201D08E
:1021AC00012332E07B681B6803F00403002B08D08A
:1021BC00194B5B6823F4E0627B68DB6816491343B8
:1021CC004B607B681B6803F00803002B09D0124B93
:1021DC005B6823F460527B681B69DB000E49134378
:1021EC004B6000F021F802460B4B5B681B0903F0B7
:1021FC000F030A49CB5C22FA03F3094A1360094B1B
:10220C001B681846FFF7A2F9002318461037BD4685
:10221C0080BD00BF0020024000100240402B00088F
:10222C008C0000209C00002080B487B000AF0023FD
:10223C00FB600023BB6000237B6100237B600023D9
:10224C003B611E4B5B68FB60FB6803F00C03042BCB
:10225C0002D0082B03D027E0194B3B6127E0FB6829
:10226C009B0C03F00F03174AD35C7B60FB6803F4F1
:10227C008033002B10D0114B5B685B0C03F0010317
:10228C00114AD35CBB607B680D4A02FB03F2BB684E
:10229C00B2FBF3F37B6104E07B680C4A02FB03F3B3
:1022AC007B617B693B6102E0054B3B6100BF3B6995
:1022BC0018461C37BD4680BC704700BF001002405A
:1022CC0000127A00502B0008602B000800093D001A
:1022DC0080B485B000AF78600A4B1B680A4AA2FB39
:1022EC0003235B0A7A6802FB03F3FB6000BFFB6805
:1022FC005A1EFA60002BF9D100BF00BF1437BD463F
:10230C0080BC70478C000020D34D621080B582B029
:10231C0000AF78607B68002B01D1012341E07B6822
:10232C0093F83D30DBB2002B06D17B68002283F89A
:10233C003C207868FEF7B0FD7B68022283F83D20D4
:10234C007B681A687B6804331946104600F056FA0D
:10235C007B68012283F846207B68012283F83E20AB
:10236C007B68012283F83F207B68012283F84020A0
:10237C007B68012283F841207B68012283F842208C
:10238C007B68012283F843207B68012283F8442078
:10239C007B68012283F845207B68012283F83D206D
:1023AC00002318460837BD4680BD000080B485B0B8
:1023BC0000AF78607B6893F83D30DBB2012B01D025
:1023CC00012335E07B68022283F83D207B681B6883
:1023DC00DA687B681B6842F00102DA607B681B6874
:1023EC00164A934209D07B681B68B3F1804F04D026
:1023FC007B681B68124A934211D17B681B689B68EF
:10240C0003F00703FB60FB68062B10D07B681B688E
:10241C001A687B681B6842F001021A6007E07B684F
:10242C001B681A687B681B6842F001021A60002363
:10243C0018461437BD4680BC704700BF002C0140C5
:10244C000004004080B584B000AF78607B681B68E6
:10245C00DB68FB607B681B681B69BB60BB6803F0B7
:10246C000203002B20D0FB6803F00203002B1BD0CF
:10247C007B681B686FF002021A617B6801221A7775
:10248C007B681B689B6903F00303002B03D07868FF
:10249C0000F098F905E0786800F08BF9786800F0A6
:1024AC009AF97B6800221A77BB6803F00403002BAF
:1024BC0020D0FB6803F00403002B1BD07B681B6847
:1024CC006FF004021A617B6802221A777B681B6822
:1024DC009B6903F44073002B03D0786800F072F909
:1024EC0005E0786800F065F9786800F074F97B68AD
:1024FC0000221A77BB6803F00803002B20D0FB687E
:10250C0003F00803002B1BD07B681B686FF00802DC
:10251C001A617B6804221A777B681B68DB6903F0FD
:10252C000303002B03D0786800F04CF905E07868C1
:10253C0000F03FF9786800F04EF97B6800221A77BA
:10254C00BB6803F01003002B20D0FB6803F01003D2
:10255C00002B1BD07B681B686FF010021A617B6824
:10256C0008221A777B681B68DB6903F44073002B25
:10257C0003D0786800F026F905E0786800F019F9C6
:10258C00786800F028F97B6800221A77BB6803F0A2
:10259C000103002B0CD0FB6803F00103002B07D0C8
:1025AC007B681B686FF001021A617868FEF754F9BA
:1025BC00BB6803F08003002B0CD0FB6803F0800396
:1025CC00002B07D07B681B686FF080021A6178685B
:1025DC0000F06FFABB6803F04003002B0CD0FB68D3
:1025EC0003F04003002B07D07B681B686FF04002A0
:1025FC001A61786800F0F8F8BB6803F02003002B30
:10260C000CD0FB6803F02003002B07D07B681B6801
:10261C006FF020021A61786800F042FA00BF1037A0
:10262C00BD4680BD80B584B000AF786039600023B2
:10263C00FB737B6893F83C30012B01D10223B4E08F
:10264C007B68012283F83C207B68022283F83D20C2
:10265C007B681B689B68BB60BB6823F07703BB601F
:10266C00BB6823F47F43BB607B681B68BA689A60C5
:10267C003B681B68B3F5005F3ED0B3F5005F00F21A
:10268C008780B3F5805F00F08680B3F5805F7FD8DC
:10269C00702B1AD0702B7BD8602B50D0602B77D836
:1026AC00502B3CD0502B73D8402B58D0402B6FD88C
:1026BC00302B64D0302B6BD8202B60D0202B67D8DC
:1026CC00002B5CD0102B5AD062E07B6818683B68FA
:1026DC0099683B685A683B68DB6800F06AF97B686C
:1026EC001B689B68BB60BB6843F07703BB607B686F
:1026FC001B68BA689A604FE07B6818683B689968F9
:10270C003B685A683B68DB6800F053F97B681B68D0
:10271C009A687B681B6842F480429A603CE07B6854
:10272C0018683B6859683B68DB681A4600F0CAF8C1
:10273C007B681B685021184600F021F92CE07B685F
:10274C0018683B6859683B68DB681A4600F0E8F883
:10275C007B681B686021184600F011F91CE07B684F
:10276C0018683B6859683B68DB681A4600F0AAF8A1
:10277C007B681B684021184600F001F90CE07B686F
:10278C001A683B681B681946104600F0F8F803E01D
:10279C000123FB7300E000BF7B68012283F83D201E
:1027AC007B68002283F83C20FB7B18461037BD4623
:1027BC0080BD80B483B000AF786000BF0C37BD46DD
:1027CC0080BC704780B483B000AF786000BF0C371A
:1027DC00BD4680BC704780B483B000AF786000BF4A
:1027EC000C37BD4680BC704780B483B000AF7860B6
:1027FC0000BF0C37BD4680BC7047000080B485B06C
:10280C0000AF786039607B681B68FB607B682B4A83
:10281C00934207D07B68B3F1804F03D07B68284A82
:10282C00934208D1FB6823F07003FB603B685B6844
:10283C00FA681343FB607B68204A934207D07B689D
:10284C00B3F1804F03D07B681D4A934208D1FB68DB
:10285C0023F44073FB603B68DB68FA681343FB604E
:10286C00FB6823F080023B685B691343FB607B6869
:10287C00FA681A603B689A687B68DA623B681A6887
:10288C007B689A627B680D4A934203D13B681A6954
:10289C007B681A637B6801225A617B681B6903F0B1
:1028AC000103002B05D07B681B6923F001027B68B8
:1028BC001A6100BF1437BD4680BC7047002C014024
:1028CC000004004080B487B000AFF860B9607A6053
:1028DC00FB681B6A7B61FB681B6A23F00102FB68C7
:1028EC001A62FB689B693B613B6923F0F0033B6117
:1028FC007B681B013A6913433B617B6923F00A0334
:10290C007B617A69BB6813437B61FB683A699A61A6
:10291C00FB687A691A6200BF1C37BD4680BC7047E1
:10292C0080B487B000AFF860B9607A60FB681B6A4E
:10293C007B61FB681B6A23F01002FB681A62FB6860
:10294C009B693B613B6923F470433B617B681B03D0
:10295C003A6913433B617B6923F0A0037B61BB683D
:10296C001B017A6913437B61FB683A699A61FB68C6
:10297C007A691A6200BF1C37BD4680BC704780B4B0
:10298C0085B000AF786039607B689B68FB60FB6842
:10299C0023F07003FB603A68FB68134343F00703B2
:1029AC00FB607B68FA689A6000BF1437BD4680BC38
:1029BC00704780B487B000AFF860B9607A603B6054
:1029CC00FB689B687B617B6923F47F437B613B687D
:1029DC001A027B681A43BB6813437A6913437B6101
:1029EC00FB687A699A6000BF1C37BD4680BC704793
:1029FC0080B485B000AF786039607B6893F83C3068
:102A0C00012B01D1022341E07B68012283F83C2099
:102A1C007B68022283F83D207B681B685B68FB6047
:102A2C007B681B689B68BB60FB6823F07003FB60D2
:102A3C003B681B68FA681343FB607B681B68FA6889
:102A4C005A607B681B68144A934209D07B681B68E8
:102A5C00B3F1804F04D07B681B68104A93420CD1B1
:102A6C00BB6823F08003BB603B685B68BA681343A8
:102A7C00BB607B681B68BA689A607B68012283F82C
:102A8C003D207B68002283F83C2000231846143735
:102A9C00BD4680BC704700BF002C014000040040C4
:102AAC0080B483B000AF786000BF0C37BD4680BCEB
:102ABC00704780B483B000AF786000BF0C37BD4660
:102ACC0080BC704770B500260C4D0D4C641BA410D7
:102ADC00A64209D100F022F800260A4D0A4C641BCC
:102AEC00A410A64205D170BD55F8043B9847013699
:102AFC00EEE755F8043B98470136F2E7642B0008E3
:102B0C00642B0008642B0008682B00080346024461
:102B1C00934200D1704703F8011BF9E7F8B500BFE9
:102B2C00F8BC08BC9E467047F8B500BFF8BC08BCA2
:042B3C009E467047FA
:102B4000000000000000000001020304060708095D
:102B500002030405060708090A0B0C0D0E0F1010DE
:042B6000010200006E
:042B64003101000833
:042B68000D01000853
:102B6C000008014000080140000801400200040078
:102B7C0008000000000C0140000C0140000C01405A
:102B8C00000C0140000C0140000C0140000C014005
:102B9C0001000200040008001000200040000000AA
:102BAC000000000000000101000001010101000013
:102BBC000100000100000000000101000100000103
:102BCC0001000000010000010000000100000000F5
:102BDC0000000000010101010000000000000000E5
:102BEC0000000001000000000A00000000127A0042
:102BFC0005000000020000000300000010000000AF
:042C0C0001000000C3
:04000005080014E1FA
:00000001FF
