:020000040800F2
:100000000028002001120008B50C0008BB0C0008F5
:10001000C10C0008C70C0008CD0C0008000000004F
:10002000000000000000000000000000D30C0008E9
:10003000DF0C000800000000EB0C0008F70C0008C3
:100040004912000849120008491200084912000824
:100050004912000849120008491200084912000814
:100060004912000849120008491200084912000804
:1000700049120008491200084912000849120008F4
:1000800049120008491200084912000849120008E4
:1000900049120008491200084912000849120008D4
:1000A00049120008491200084912000849120008C4
:1000B000050D000849120008000000004912000860
:1000C000491200080000000000000000491200086A
:1000D000000000004912000849120008000000005A
:1000E00049120008491200084912000800000000E7
:1000F0000000000000000000000000000000000000
:0C01000000000000000000005FF808F1A3
:10010C0010B5054C237833B9044B13B10448AFF345
:10011C0000800123237010BDA4000020000000000B
:10012C004828000808B5034B1BB103490348AFF33B
:10013C00008008BD00000000A8000020482800082E
:10014C0080B483B000AF00237B601BE0194A7B684E
:10015C00012142F82310184A7B68012142F8231030
:10016C00164A7B68012142F82310154A7B6801214D
:10017C0042F82310134A7B68C82142F823107B688D
:10018C0001337B607B68022BE0DD00233B6007E0E2
:10019C000D4A3B68002142F823103B6801333B6059
:1001AC003B68022BF4DD00BF00BF0C37BD4680BCA2
:1001BC00704700BF1C010020280100204C010020CA
:1001CC0010010020340100204001002080B483B0D5
:1001DC0000AF7860094A7B6852F82330012B06D1B6
:1001EC00064A7B68002142F82310012300E000231B
:1001FC0018460C37BD4680BC704700BF400100203C
:10020C0080B582B000AF00237B6078E0404A7B6809
:10021C0052F823203F497B6841F823203E4A7B68F3
:10022C0052F823203A497B6841F823203B4A7B68EB
:10023C0052F823203A497B6831F81330194610469E
:10024C0001F0E8FA03461946334A7B6842F823105A
:10025C00304A7B6852F823202D497B6851F82330B3
:10026C009A4249D12A4A7B6852F823202A497B6852
:10027C0051F823309A423FD12A4A7B6852F8232006
:10028C0025497B6851F823309A4218D0224A7B6862
:10029C0052F8232023497B6841F823201E4A7B68AF
:1002AC0052F82330002B27D11F4A7B68012142F8DA
:1002BC0023101E4A7B68C82142F823101CE01B4AFD
:1002CC007B6852F823305A1E18497B6841F823206A
:1002DC00164A7B6852F82330002B0DDC0E4A7B68E3
:1002EC0052F82330002B0CBF01230023DBB219463C
:1002FC000C4A7B6842F823107B6801337B607B6877
:10030C00022B83DD00BF00BF0837BD4680BD00BF98
:10031C00280100201C0100204C01002000000020BE
:10032C000C000020100100204001002034010020AE
:10033C0080B500AFAB4B1B68013B0B2B00F2478128
:10034C0001A252F823F000BF8503000885030008C2
:10035C0085030008DB050008DB050008DB05000849
:10036C00DB050008DB050008DB050008F5030008C9
:10037C009F040008410500089B4B1B79002B06D0FD
:10038C004FF47A71042000F0EBFB00F0EDFA964B81
:10039C009B79002B06D04FF47A71062000F0E0FB1D
:1003AC0000F040FB0020FFF711FF0346012B40F04B
:1003BC0010818C4B0A221A608C4B0A221A60002185
:1003CC00002000F0CDFB42F21071012000F0C8FBC0
:1003DC00C821022000F0C4FB854B1B68184600F0B6
:1003EC0089FA00F0ADFAF4E0C82000F04DFD814B25
:1003FC0000229A607F4B0122DA607B4B5B78002BEA
:10040C0005D10220FFF7E2FE0346002B09D0754B05
:10041C0000221A60754B00221A600021022000F0A5
:10042C009FFB0120FFF7D2FE0346012B17D1704B27
:10043C001B6801336E4A13606D4B1B68632B02DD26
:10044C006B4B01221A606A4B1B68184600F052FA7B
:10045C0000F076FA42F21071012000F081FB0020CE
:10046C00FFF7B4FE0346012B40F0B5805D4B0B2229
:10047C001A605E4B0B221A6042F21071012000F0E0
:10048C006FFB5D4B1B68184600F034FA00F058FA0D
:10049C00A1E0C82000F0F8FC564B00229A60554BA6
:1004AC000222DA60504B5B78002B05D10220FFF75B
:1004BC008DFE0346002B06D04A4B00221A60002109
:1004CC00022000F04DFB0120FFF780FE0346012BBC
:1004DC0017D1494B1B680133474A1360464B1B68C5
:1004EC00632B02DD444B01221A60434B1B681846F8
:1004FC0000F000FA00F024FA42F21071012000F032
:10050C002FFB0020FFF762FE0346012B65D1354B14
:10051C000C221A60354B0C221A6042F21071012029
:10052C0000F01EFB354B1B68184600F0E3F900F099
:10053C0007FA52E0C82000F0A7FC2E4B00229A606C
:10054C002C4B0322DA60284B5B78002B05D1022060
:10055C00FFF73CFE0346002B09D0224B00221A6009
:10056C00224B00221A600021022000F0F9FA01202F
:10057C00FFF72CFE0346012B17D1204B1B680133D0
:10058C001E4A13601D4B1B68092B02DD1B4B0122FD
:10059C001A601A4B1B68184600F0ACF900F0D0F941
:1005AC0042F21071012000F0DBFA0020FFF70EFE82
:1005BC000346012B13D10B4B00221A600B4B00226C
:1005CC001A6042F21071012000F0CAFA07E000BF75
:1005DC0006E000BF04E000BF02E000BF00E000BF87
:1005EC0000BF80BDC000002004010020C40000201A
:1005FC0090000020CC0000209800002094000020E7
:10060C0080B500AF00F01CFE00F02AF800F0B0F846
:10061C0000F062F80F4801F059FD0F4B00221A60F0
:10062C00FFF78EFD00F048F96421032000F098FAE2
:10063C0000F09CFC00F03CFDFFF77AFE074BDB78EA
:10064C00002BF5D06421032000F08AFA00F072FA36
:10065C00EEE700BF58010020C0000020040100207C
:10066C0080B590B000AF07F118032822002118467E
:10067C0002F0DCF83B1D00221A605A609A60DA60C6
:10068C001A610223BB610123BB621023FB620023AE
:10069C007B6307F11803184601F0ECF80346002BB6
:1006AC0001D000F0D1F80F237B600023BB60002346
:1006BC00FB6000233B6100237B613B1D002118463E
:1006CC0001F058FB0346002B01D000F0BDF800BF31
:1006DC004037BD4680BD000080B586B000AF07F145
:1006EC00080300221A605A609A60DA603B460022C6
:1006FC001A605A601D4B4FF080421A601B4B41F63A
:10070C003F725A60194B00229A60184B0922DA602A
:10071C00164B00221A61154B00229A61134801F006
:10072C0085FC0346002B01D000F08EF84FF480536B
:10073C00BB6007F1080319460C4801F003FE0346A1
:10074C00002B01D000F080F800233B6000237B607D
:10075C003B461946054801F0DBFF0346002B01D050
:10076C0000F072F800BF1837BD4680BD580100205C
:10077C0080B586B000AF07F1080300221A605A60FA
:10078C009A60DA60274B9B69264A43F00403936115
:10079C00244B9B6903F004037B607B68214B9B69B2
:1007AC00204A43F0080393611E4B9B6903F0080336
:1007BC003B603B6800224FF2E0711B4801F041F8AE
:1007CC0000227F21194801F03CF80E23BB60002366
:1007DC00FB6001233B6107F108031946124800F046
:1007EC009FFE4FF2E073BB600123FB6000233B6173
:1007FC0002237B6107F1080319460B4800F090FEB9
:10080C007F23BB600123FB6000233B6102237B61E0
:10081C0007F108031946054800F082FE00BF18379F
:10082C00BD4680BD0010024000080140000C014094
:10083C0080B582B000AF786000F0B0F9FFF7E0FC53
:10084C0000BF0837BD4680BD80B400AF72B600BF94
:10085C00FEE7000090B585B000AF78607B68002B98
:10086C0002DA7B68092B1DDC0023FB6016E00F4AC3
:10087C00FB6852F823000E4AFB6832F813100D4C3B
:10088C007A681346DB009B1AE218FB6813441B784A
:10089C001A4600F0D6FFFB680133FB60FB68062BA1
:1008AC00E5DD00E000BF1437BD4690BD140000200C
:1008BC00300000204000002080B500AF01224FF432
:1008CC0080510B4800F0BDFF01224FF40051084845
:1008DC0000F0B7FF01224FF48041054800F0B1FF52
:1008EC0001224FF40041024800F0ABFF00BF80BD75
:1008FC000008014080B483B000AF78607B680D4A7B
:10090C0082FB03129210DB17D31A0B4A136079681F
:10091C00084B83FB01239A10CB17D21A13469B006A
:10092C0013445B00CA1A054B1A6000BF0C37BD4656
:10093C0080BC704767666666B0010020A801002085
:10094C0080B400AF054B1B68054A1360054B1B6850
:10095C00034A536000BFBD4680BC7047B001002005
:10096C00CC000020A801002080B500AFFFF7E8FF05
:10097C000D4B1B68002B04DD0B4B1B68013B0A4A1B
:10098C001360094B1B68002B0BDC084B1B68002BFE
:10099C0007DD064B1B68013B044A1360024B09221E
:1009AC001A6000BF80BD00BFA8010020B00100206C
:1009BC0080B483B000AF78607B680D4A82FB031271
:1009CC009210DB17D31A0B4A13607968084B83FB20
:1009DC0001239A10CB17D21A13469B0013445B00C9
:1009EC00CA1A054B1A6000BF0C37BD4680BC704755
:1009FC0067666666A4010020AC01002080B400AFDD
:100A0C00054B1B68054A9360054B1B68034AD36072
:100A1C0000BFBD4680BC7047A4010020CC00002064
:100A2C00AC01002080B500AFFFF7E8FF0D4B1B6851
:100A3C00002B04DD0B4B1B68013B0A4A1360094B6E
:100A4C001B68002B0BDC084B1B68002B07DD064BCF
:100A5C001B68013B044A1360024B09221A6000BF59
:100A6C0080BD00BFAC010020A401002080B582B085
:100A7C0000AF78607B68032B52D801A252F823F0A8
:100A8C009D0A0008C10A0008E50A0008090B0008C5
:100A9C00264B1B681846FFF7DDFE00224FF48051F1
:100AAC00234800F0CEFE01224FF40041204800F014
:100ABC00C8FE36E01D4B5B681846FFF7CBFE0022E4
:100ACC004FF400511A4800F0BCFE01224FF4805143
:100ADC00174800F0B6FE24E0144B9B681846FFF74D
:100AEC00B9FE00224FF48041114800F0AAFE012209
:100AFC004FF400510E4800F0A4FE12E00B4BDB68E3
:100B0C001846FFF7A7FE00224FF40041084800F0FA
:100B1C0098FE01224FF48041054800F092FE00E05F
:100B2C0000BF00BF0837BD4680BD00BFCC00002011
:100B3C000008014080B500AF084B1B68032B02DD99
:100B4C00064B00221A60054B1B685A1C03490A60AD
:100B5C001846FFF78BFF00BF80BD00BFC800002008
:100B6C0080B483B000AF78603960094B1B683A6879
:100B7C0092FBF3F207497B6841F82320064A7B6815
:100B8C00134400221A7000BF0C37BD4680BC70475E
:100B9C0088000020DC0000200401002080B483B019
:100BAC0000AF00237B601CE0124A7B6852F82330B4
:100BBC00002B13DD0F4A7B6852F823305A1E0D4967
:100BCC007B6841F823200B4A7B6852F82330002BBA
:100BDC0004DC094A7B68134401221A707B680133D8
:100BEC007B607B68092BDFDD00BF00BF0C37BD4687
:100BFC0080BC7047DC0000200401002080B485B06C
:100C0C0000AF154B9B69144A43F001039361124BDF
:100C1C009B6903F00103BB60BB680F4BDB690E4A99
:100C2C0043F08053D3610C4BDB6903F080537B6042
:100C3C007B680A4B5B68FB60FB6823F0E063FB603E
:100C4C00FB6843F08063FB60044AFB68536000BFA1
:100C5C001437BD4680BC70470010024000000140B4
:100C6C0080B584B000AF78607B681B68B3F1804FAF
:100C7C0013D10C4BDB690B4A43F00103D361094BD5
:100C8C00DB6903F00103FB60FB68002200211C20E0
:100C9C0000F00FFC1C2000F028FC00BF1037BD46F4
:100CAC0080BD00BF0010024080B400AFFEE780B4EE
:100CBC0000AFFEE780B400AFFEE780B400AFFEE704
:100CCC0080B400AFFEE780B400AF00BFBD4680BC6F
:100CDC00704780B400AF00BFBD4680BC704780B485
:100CEC0000AF00BFBD4680BC704780B500AF00F0C0
:100CFC00EDFA00BF80BD000080B500AF024801F0E6
:100D0C0031FA00BF80BD00BF5801002080B400AF95
:100D1C0000BFBD4680BC704780B500AF00222021CB
:100D2C00074800F08EFD01224021054800F089FDA6
:100D3C0001228021024800F084FD00BF80BD00BF6D
:100D4C000008014080B500AF01222021074800F0C7
:100D5C0078FD00224021054800F073FD012280211E
:100D6C00024800F06EFD00BF80BD00BF00080140CE
:100D7C0080B500AF01222021074800F062FD01225E
:100D8C004021054800F05DFD00228021024800F062
:100D9C0058FD00BF80BD00BF0008014080B500AF0A
:100DAC0000224FF48071084800F04BFD01224FF4F3
:100DBC000071054800F045FD01224FF480610248A6
:100DCC0000F03FFD00BF80BD0008014080B500AFC2
:100DDC0001224FF48071084800F033FD00224FF4DB
:100DEC000071054800F02DFD01224FF4806102488E
:100DFC0000F027FD00BF80BD0008014080B500AFAA
:100E0C0001224FF48071084800F01BFD01224FF4C1
:100E1C000071054800F015FD00224FF48061024876
:100E2C0000F00FFD00BF80BD0008014080B500AF91
:100E3C0001222021074800F004FD01224021054831
:100E4C0000F0FFFC01228021024800F0FAFC00BFF8
:100E5C0080BD00BF0008014080B500AF01224FF4F7
:100E6C008071084800F0EDFC01224FF40071054838
:100E7C0000F0E7FC01224FF48061024800F0E1FC35
:100E8C0000BF80BD0008014080B582B000AF786023
:100E9C00334B1B78002B02D0012B2DD05CE00022B1
:100EAC002021304800F0CDFC002240212D4800F0DC
:100EBC00C8FC002280212B4800F0C3FC01224FF417
:100ECC008071284800F0BDFC01224FF400712548C8
:100EDC0000F0B7FC01224FF48061224800F0B1FC15
:100EEC00214B9B78002B34D01D4B01221A70796852
:100EFC000220FFF735FE2CE001222021194800F0DA
:100F0C00A0FC01224021174800F09BFC012280210B
:100F1C00144800F096FC00224FF48071114800F048
:100F2C0090FC00224FF400710E4800F08AFC002265
:100F3C004FF480610B4800F084FC0B4B9B78002B2A
:100F4C0009D0074B00221A7079680220FFF708FEBF
:100F5C0001E000BF00E000BF00BF0837BD4680BD08
:100F6C000E010020000801400401002080B500AFF4
:100F7C004A4B1B68032B00F2878001A252F823F026
:100F8C009D0F0008D50F000855100008151000081B
:100F9C00FFF74CFF424B1B684FF47A7202FB03F3D2
:100FAC0019460020FFF7DCFD3D4B1B681846FFF788
:100FBC00A1FCFFF7D9FC4FF47A710420FFF7D0FDA8
:100FCC00364B01221A6066E0FFF7A6FE354B1B7804
:100FDC00002B5BD0314B03221A60334B1B684FF450
:100FEC007A7202FB03F319460020FFF7B9FD2E4B72
:100FFC001B681846FFF77EFCFFF7B6FC4FF47A71BE
:10100C000420FFF7ADFD41E0FFF7B2FE254B1B7846
:10101C00002B3DD0214B02221A60244B1B684FF44D
:10102C007A7202FB03F319460020FFF799FD1F4B60
:10103C001B681846FFF75EFCFFF796FC4FF47A71BD
:10104C000420FFF78DFD23E0FFF77CFE154B1B788A
:10105C00002B1FD0114B01221A60114B1B684FF44F
:10106C007A7202FB03F319460020FFF779FD0C4B53
:10107C001B681846FFF73EFCFFF776FC4FF47A71BD
:10108C000420FFF76DFD05E000BF04E000BF02E0A7
:10109C0000BF00E000BF00BF80BD00BFC00000204B
:1010AC0090000020040100209800002094000020F3
:1010BC0080B500AF4A4B1B68032B00F2878001A25E
:1010CC0052F823F0E11000081911000899110008DA
:1010DC0059110008FFF7C0FE424B1B684FF47A729F
:1010EC0002FB03F319460520FFF73AFD3D4B1B6845
:1010FC001846FFF75DFCFFF795FC4FF47A7106205C
:10110C00FFF72EFD364B03221A6066E0FFF746FE12
:10111C00354B5B79002B5BD0314B03221A60314B82
:10112C001B684FF47A7202FB03F319460520FFF794
:10113C0017FD2C4B1B681846FFF73AFCFFF772FCA7
:10114C004FF47A710620FFF70BFD41E0FFF756FED6
:10115C00254B5B79002B3DD0214B02221A60234B8F
:10116C001B684FF47A7202FB03F319460520FFF754
:10117C00F7FC1E4B1B681846FFF71AFCFFF752FCD6
:10118C004FF47A710620FFF7EBFC23E0FFF71EFE0D
:10119C00154B5B79002B1FD0114B01221A60144B9D
:1011AC001B684FF47A7202FB03F319460520FFF714
:1011BC00D7FC0F4B1B681846FFF7FAFBFFF732FC06
:1011CC004FF47A710620FFF7CBFC05E000BF04E07A
:1011DC0000BF02E000BF00E000BF00BF80BD00BF49
:1011EC00C40000209800002004010020940000207E
:1011FC0090000020FFF78AFD0B480C490C4A002395
:10120C0002E0D458C4500433C4188C42F9D3094AB0
:10121C00094C002301E013600432A242FBD301F01D
:10122C00E1FAFFF7EDF9704700000020A400002060
:10123C008C280008A4000020B8010020FEE7000064
:10124C0080B500AF084B1B68074A43F010031360CE
:10125C00032000F023F90F2000F008F8FFF7CEFC74
:10126C000023184680BD00BF0020024080B582B02C
:10127C0000AF7860124B1A68124B1B7819464FF46A
:10128C007A73B3FBF1F3B2FBF3F3184600F03BF9BE
:10129C000346002B01D001230EE07B680F2B0AD8EC
:1012AC00002279684FF0FF3000F003F9064A7B68A2
:1012BC001360002300E0012318460837BD4680BDAB
:1012CC008C000020A00000209C00002080B400AF07
:1012DC00054B1B781A46054B1B681344034A1360D5
:1012EC0000BFBD4680BC7047A0000020B4010020A8
:1012FC0080B400AF024B1B681846BD4680BC7047DB
:10130C00B401002080B485B000AF78607B6803F036
:10131C000703FB600C4BDB68BB60BA684FF6FF033E
:10132C001340BB60FB681A02BB68134343F0BF63F6
:10133C0043F40033BB60044ABB68D36000BF14376E
:10134C00BD4680BC704700BF00ED00E080B400AF2C
:10135C00044BDB681B0A03F007031846BD4680BC30
:10136C00704700BF00ED00E080B483B000AF0346CF
:10137C00FB7197F90730002B0BDBFB7903F01F0295
:10138C00064997F907305B09012000FA02F241F88F
:10139C00232000BF0C37BD4680BC704700E100E045
:1013AC0080B483B000AF03463960FB7197F9073006
:1013BC00002B0ADB3B68DAB20C4997F907301201B3
:1013CC00D2B20B4483F800230AE03B68DAB2084936
:1013DC00FB7903F00F03043B1201D2B20B441A76D3
:1013EC0000BF0C37BD4680BC704700BF00E100E079
:1013FC0000ED00E080B489B000AFF860B9607A60AD
:10140C00FB6803F00703FB61FB69C3F10703042BC3
:10141C0028BF0423BB61FB690433062B02D9FB698B
:10142C00033B00E000237B614FF0FF32BB6902FA03
:10143C0003F3DA43BB681A407B699A404FF0FF31E3
:10144C007B6901FA03F3D9437B680B4013431846BD
:10145C002437BD4680BC704780B582B000AF786041
:10146C007B68013BB3F1807F01D301230FE00A4A73
:10147C007B68013B53600F214FF0FF30FFF790FF6B
:10148C00054B00229A60044B07221A600023184671
:10149C000837BD4680BD00BF10E000E080B582B0CB
:1014AC0000AF78607868FFF72DFF00BF0837BD46A6
:1014BC0080BD80B586B000AF0346B9607A60FB731F
:1014CC0000237B61FFF742FF78617A68B96878691D
:1014DC00FFF790FF024697F90F3011461846FFF7B9
:1014EC005FFF00BF1837BD4680BD80B582B000AF2E
:1014FC000346FB7197F907301846FFF735FF00BF1D
:10150C000837BD4680BD80B582B000AF7860786882
:10151C00FFF7A2FF034618460837BD4680BD000002
:10152C0080B48BB000AF7860396000237B620023FD
:10153C003B6248E101227B6A02FA03F3FB613B68E0
:10154C001B68FA691340BB61BA69FB699A4240F0A7
:10155C0037813B685B68A34A93425ED0A14A9342B1
:10156C0075D8A14A934258D09F4A93426FD89F4A4C
:10157C00934252D09D4A934269D89D4A93424CD093
:10158C009B4A934263D89B4A934246D0994A9342D2
:10159C005DD8122B2AD8122B59D801A252F823F05D
:1015AC002716000801160008131600085516000827
:1015BC005B1600085B1600085B1600085B1600083B
:1015CC005B1600085B1600085B1600085B1600082B
:1015DC005B1600085B1600085B1600085B1600081B
:1015EC005B160008091600081D160008824A934273
:1015FC0013D02CE03B68DB683B6229E03B68DB687E
:10160C0004333B6224E03B68DB6808333B621FE039
:10161C003B68DB680C333B621AE03B689B68002B31
:10162C0002D104233B6213E03B689B68012B05D17C
:10163C0008233B627B68FA691A6109E008233B6264
:10164C007B68FA695A6103E000233B6200E000BF4B
:10165C00BB69FF2B01D87B6801E07B6804337B619D
:10166C00BB69FF2B02D87B6A9B0002E07B6A083BBC
:10167C009B003B617B691A680F213B6901FA03F3FC
:10168C00DB431A40396A3B6901FA03F31A437B695D
:10169C001A603B685B6803F08053002B00F090806D
:1016AC00564B9B69554A43F001039361534B9B691D
:1016BC0003F00103BB60BB68514A7B6A9B08023391
:1016CC0052F82330FB607B6A03F003039B000F226C
:1016DC0002FA03F3DB43FA681340FB607B68494A68
:1016EC0093420DD07B68484A934207D07B68474AA7
:1016FC00934201D1022304E0032302E0012300E022
:10170C0000237A6A02F0030292009340FA681343B2
:10171C00FB603B497B6A9B080233FA6841F8232043
:10172C003B685B6803F48013002B06D0384B9A6837
:10173C003749BB6913438B6006E0354B9A68BB692C
:10174C00DB43334913408B603B685B6803F4001345
:10175C00002B06D02E4BDA682D49BB691343CB60A6
:10176C0006E02B4BDA68BB69DB4329491340CB609D
:10177C003B685B6803F40033002B06D0244B5A689B
:10178C002349BB6913434B6006E0214B5A68BB6984
:10179C00DB431F4913404B603B685B6803F48033A9
:1017AC00002B06D01A4B1A681949BB6913430B60FE
:1017BC0006E0174B1A68BB69DB43154913400B60F5
:1017CC007B6A01337B623B681A687B6A22FA03F3FB
:1017DC00002B7FF4AFAE00BF00BF2C37BD4680BCE2
:1017EC00704700BF000032100000311000002210C2
:1017FC000000211000001210000011100010024017
:10180C000000014000080140000C014000100140A4
:10181C000004014080B485B000AF78600B467B803B
:10182C007B689A687B881340002B02D00123FB73E2
:10183C0001E00023FB73FB7B18461437BD4680BCCC
:10184C00704780B483B000AF78600B467B80134642
:10185C007B707B78002B03D07A887B681A6103E05D
:10186C007B881A047B681A6100BF0C37BD4680BCAC
:10187C007047000080B586B000AF78607B68002BA5
:10188C0001D101236CE27B681B6803F00103002B80
:10189C0000F08780924B5B6803F00C03042B0CD098
:1018AC008F4B5B6803F00C03082B12D18C4B5B68DD
:1018BC0003F48033B3F5803F0BD1894B1B6803F4E1
:1018CC000033002B6CD07B685B68002B68D1012344
:1018DC0046E27B685B68B3F5803F06D1804B1B68A2
:1018EC007F4A43F4803313602EE07B685B68002BE7
:1018FC000CD17B4B1B687A4A23F480331360784BF2
:10190C001B68774A23F4802313601DE07B685B68B7
:10191C00B3F5A02F0CD1724B1B68714A43F4802392
:10192C0013606F4B1B686E4A43F4803313600BE0FB
:10193C006B4B1B686A4A23F480331360684B1B683B
:10194C00674A23F4802313607B685B68002B13D0F9
:10195C00FFF7CEFC386108E0FFF7CAFC02463B6992
:10196C00D31A642B01D90323FAE15D4B1B6803F4F2
:10197C000033002BF0D014E0FFF7BAFC386108E01C
:10198C00FFF7B6FC02463B69D31A642B01D903233B
:10199C00E6E1534B1B6803F40033002BF0D100E05D
:1019AC0000BF7B681B6803F00203002B63D04C4B19
:1019BC005B6803F00C03002B0BD0494B5B6803F006
:1019CC000C03082B1CD1464B5B6803F48033002BB3
:1019DC0016D1434B1B6803F00203002B05D07B6828
:1019EC001B69012B01D00123BAE13D4B1B6823F08D
:1019FC00F8027B685B69DB00394913430B603AE002
:101A0C007B681B69002B20D0364B01221A60FFF734
:101A1C006FFC386108E0FFF76BFC02463B69D31A98
:101A2C00022B01D903239BE12D4B1B6803F002030E
:101A3C00002BF0D02A4B1B6823F0F8027B685B6903
:101A4C00DB00274913430B6015E0264B00221A607C
:101A5C00FFF74EFC386108E0FFF74AFC02463B6991
:101A6C00D31A022B01D903237AE11D4B1B6803F017
:101A7C000203002BF0D17B681B6803F00803002BDA
:101A8C003AD07B689B69002B19D0174B01221A6046
:101A9C00FFF72EFC386108E0FFF72AFC02463B6991
:101AAC00D31A022B01D903235AE10D4B5B6A03F0C5
:101ABC000203002BF0D0012000F09AFA1CE00A4B34
:101ACC0000221A60FFF714FC38610FE0FFF710FCDE
:101ADC0002463B69D31A022B08D9032340E100BF0D
:101AEC000010024000004242800442429E4B5B6A5E
:101AFC0003F00203002BE9D17B681B6803F004039D
:101B0C00002B00F0A6800023FB75974BDB6903F0DC
:101B1C008053002B0DD1944BDB69934A43F08053D7
:101B2C00D361914BDB6903F08053BB60BB6801232D
:101B3C00FB758E4B1B6803F48073002B18D18B4BF9
:101B4C001B688A4A43F480731360FFF7D1FB38613A
:101B5C0008E0FFF7CDFB02463B69D31A642B01D991
:101B6C000323FDE0814B1B6803F48073002BF0D042
:101B7C007B68DB68012B06D17B4B1B6A7A4A43F0EE
:101B8C00010313622DE07B68DB68002B0CD1764BD4
:101B9C001B6A754A23F001031362734B1B6A724A6A
:101BAC0023F0040313621CE07B68DB68052B0CD16B
:101BBC006D4B1B6A6C4A43F0040313626A4B1B6A3D
:101BCC00694A43F0010313620BE0674B1B6A664AD8
:101BDC0023F001031362644B1B6A634A23F0040372
:101BEC0013627B68DB68002B15D0FFF781FB386133
:101BFC000AE0FFF77DFB02463B69D31A41F28832BB
:101C0C00934201D90323ABE0574B1B6A03F0020349
:101C1C00002BEED014E0FFF76BFB38610AE0FFF706
:101C2C0067FB02463B69D31A41F28832934201D9D1
:101C3C00032395E04C4B1B6A03F00203002BEED1FF
:101C4C00FB7D012B05D1484BDB69474A23F08053C0
:101C5C00D3617B68DB69002B00F08180424B5B68B1
:101C6C0003F00C03082B61D07B68DB69022B46D197
:101C7C003F4B00221A60FFF73BFB386108E0FFF78F
:101C8C0037FB02463B69D31A022B01D9032367E0C9
:101C9C00354B1B6803F00073002BF0D17B681B6A7B
:101CAC00B3F5803F08D1304B5B6823F400327B687E
:101CBC009B682D4913434B602B4B5B6823F47412C8
:101CCC007B68196A7B685B6A0B43274913434B603B
:101CDC00274B01221A60FFF70BFB386108E0FFF776
:101CEC0007FB02463B69D31A022B01D9032337E0C9
:101CFC001D4B1B6803F00073002BF0D02FE01C4B26
:101D0C0000221A60FFF7F4FA386108E0FFF7F0FAE6
:101D1C0002463B69D31A022B01D9032320E0124B54
:101D2C001B6803F00073002BF0D118E07B68DB69B3
:101D3C00012B01D1012313E00B4B5B68FB60FB68AB
:101D4C0003F480327B681B6A9A4206D1FB6803F469
:101D5C0070127B685B6A9A4201D0012300E0002379
:101D6C0018461837BD4680BD001002400070004078
:101D7C006000424280B584B000AF786039607B6807
:101D8C00002B01D10123D0E06A4B1B6803F0070341
:101D9C003A689A4210D9674B1B6823F007026549D1
:101DAC003B6813430B60634B1B6803F007033A68F3
:101DBC009A4201D00123B8E07B681B6803F0020350
:101DCC00002B20D07B681B6803F00403002B05D08C
:101DDC00594B5B68584A43F4E06353607B681B685B
:101DEC0003F00803002B05D0534B5B68524A43F4B5
:101DFC0060535360504B5B6823F0F0027B689B6828
:101E0C004D4913434B607B681B6803F00103002BA7
:101E1C0040D07B685B68012B07D1474B1B6803F4F0
:101E2C000033002B15D101237FE07B685B68022B0C
:101E3C0007D1414B1B6803F00073002B09D1012320
:101E4C0073E03D4B1B6803F00203002B01D101230F
:101E5C006BE0394B5B6823F003027B685B683649A7
:101E6C0013434B60FFF744FAF8600AE0FFF740FABF
:101E7C000246FB68D31A41F28832934201D90323FC
:101E8C0053E02D4B5B6803F00C027B685B689B0096
:101E9C009A42EBD1274B1B6803F007033A689A422E
:101EAC0010D2244B1B6823F0070222493B681343D2
:101EBC000B60204B1B6803F007033A689A4201D071
:101ECC00012332E07B681B6803F00403002B08D06D
:101EDC00194B5B6823F4E0627B68DB68164913439B
:101EEC004B607B681B6803F00803002B09D0124B76
:101EFC005B6823F460527B681B69DB000E4913435B
:101F0C004B6000F021F802460B4B5B681B0903F099
:101F1C000F030A49CB5C22FA03F3094A1360094BFD
:101F2C001B681846FFF7A2F9002318461037BD4668
:101F3C0080BD00BF00200240001002406028000855
:101F4C008C0000209C00002080B487B000AF0023E0
:101F5C00FB600023BB6000237B6100237B600023BC
:101F6C003B611E4B5B68FB60FB6803F00C03042BAE
:101F7C0002D0082B03D027E0194B3B6127E0FB680C
:101F8C009B0C03F00F03174AD35C7B60FB6803F4D4
:101F9C008033002B10D0114B5B685B0C03F00103FA
:101FAC00114AD35CBB607B680D4A02FB03F2BB6831
:101FBC00B2FBF3F37B6104E07B680C4A02FB03F396
:101FCC007B617B693B6102E0054B3B6100BF3B6978
:101FDC0018461C37BD4680BC704700BF001002403D
:101FEC0000127A00702800088028000800093D00C3
:101FFC0080B485B000AF78600A4B1B680A4AA2FB1C
:10200C0003235B0A7A6802FB03F3FB6000BFFB68E7
:10201C005A1EFA60002BF9D100BF00BF1437BD4621
:10202C0080BC70478C000020D34D621080B582B00C
:10203C0000AF78607B68002B01D1012341E07B6805
:10204C0093F83D30DBB2002B06D17B68002283F87D
:10205C003C207868FEF704FE7B68022283F83D2062
:10206C007B681A687B6804331946104600F056FAF0
:10207C007B68012283F846207B68012283F83E208E
:10208C007B68012283F83F207B68012283F8402083
:10209C007B68012283F841207B68012283F842206F
:1020AC007B68012283F843207B68012283F844205B
:1020BC007B68012283F845207B68012283F83D2050
:1020CC00002318460837BD4680BD000080B485B09B
:1020DC0000AF78607B6893F83D30DBB2012B01D008
:1020EC00012335E07B68022283F83D207B681B6866
:1020FC00DA687B681B6842F00102DA607B681B6857
:10210C00164A934209D07B681B68B3F1804F04D008
:10211C007B681B68124A934211D17B681B689B68D1
:10212C0003F00703FB60FB68062B10D07B681B6871
:10213C001A687B681B6842F001021A6007E07B6832
:10214C001B681A687B681B6842F001021A60002346
:10215C0018461437BD4680BC704700BF002C0140A8
:10216C000004004080B584B000AF78607B681B68C9
:10217C00DB68FB607B681B681B69BB60BB6803F09A
:10218C000203002B20D0FB6803F00203002B1BD0B2
:10219C007B681B686FF002021A617B6801221A7758
:1021AC007B681B689B6903F00303002B03D07868E2
:1021BC0000F098F905E0786800F08BF9786800F089
:1021CC009AF97B6800221A77BB6803F00403002B92
:1021DC0020D0FB6803F00403002B1BD07B681B682A
:1021EC006FF004021A617B6802221A777B681B6805
:1021FC009B6903F44073002B03D0786800F072F9EC
:10220C0005E0786800F065F9786800F074F97B688F
:10221C0000221A77BB6803F00803002B20D0FB6860
:10222C0003F00803002B1BD07B681B686FF00802BF
:10223C001A617B6804221A777B681B68DB6903F0E0
:10224C000303002B03D0786800F04CF905E07868A4
:10225C0000F03FF9786800F04EF97B6800221A779D
:10226C00BB6803F01003002B20D0FB6803F01003B5
:10227C00002B1BD07B681B686FF010021A617B6807
:10228C0008221A777B681B68DB6903F44073002B08
:10229C0003D0786800F026F905E0786800F019F9A9
:1022AC00786800F028F97B6800221A77BB6803F085
:1022BC000103002B0CD0FB6803F00103002B07D0AB
:1022CC007B681B686FF001021A617868FEF7B0FA40
:1022DC00BB6803F08003002B0CD0FB6803F0800379
:1022EC00002B07D07B681B686FF080021A6178683E
:1022FC0000F06FFABB6803F04003002B0CD0FB68B6
:10230C0003F04003002B07D07B681B686FF0400282
:10231C001A61786800F0F8F8BB6803F02003002B12
:10232C000CD0FB6803F02003002B07D07B681B68E4
:10233C006FF020021A61786800F042FA00BF103783
:10234C00BD4680BD80B584B000AF78603960002395
:10235C00FB737B6893F83C30012B01D10223B4E072
:10236C007B68012283F83C207B68022283F83D20A5
:10237C007B681B689B68BB60BB6823F07703BB6002
:10238C00BB6823F47F43BB607B681B68BA689A60A8
:10239C003B681B68B3F5005F3ED0B3F5005F00F2FD
:1023AC008780B3F5805F00F08680B3F5805F7FD8BF
:1023BC00702B1AD0702B7BD8602B50D0602B77D819
:1023CC00502B3CD0502B73D8402B58D0402B6FD86F
:1023DC00302B64D0302B6BD8202B60D0202B67D8BF
:1023EC00002B5CD0102B5AD062E07B6818683B68DD
:1023FC0099683B685A683B68DB6800F06AF97B684F
:10240C001B689B68BB60BB6843F07703BB607B6851
:10241C001B68BA689A604FE07B6818683B689968DB
:10242C003B685A683B68DB6800F053F97B681B68B3
:10243C009A687B681B6842F480429A603CE07B6837
:10244C0018683B6859683B68DB681A4600F0CAF8A4
:10245C007B681B685021184600F021F92CE07B6842
:10246C0018683B6859683B68DB681A4600F0E8F866
:10247C007B681B686021184600F011F91CE07B6832
:10248C0018683B6859683B68DB681A4600F0AAF884
:10249C007B681B684021184600F001F90CE07B6852
:1024AC001A683B681B681946104600F0F8F803E000
:1024BC000123FB7300E000BF7B68012283F83D2001
:1024CC007B68002283F83C20FB7B18461037BD4606
:1024DC0080BD80B483B000AF786000BF0C37BD46C0
:1024EC0080BC704780B483B000AF786000BF0C37FD
:1024FC00BD4680BC704780B483B000AF786000BF2D
:10250C000C37BD4680BC704780B483B000AF786098
:10251C0000BF0C37BD4680BC7047000080B485B04E
:10252C0000AF786039607B681B68FB607B682B4A66
:10253C00934207D07B68B3F1804F03D07B68284A65
:10254C00934208D1FB6823F07003FB603B685B6827
:10255C00FA681343FB607B68204A934207D07B6880
:10256C00B3F1804F03D07B681D4A934208D1FB68BE
:10257C0023F44073FB603B68DB68FA681343FB6031
:10258C00FB6823F080023B685B691343FB607B684C
:10259C00FA681A603B689A687B68DA623B681A686A
:1025AC007B689A627B680D4A934203D13B681A6937
:1025BC007B681A637B6801225A617B681B6903F094
:1025CC000103002B05D07B681B6923F001027B689B
:1025DC001A6100BF1437BD4680BC7047002C014007
:1025EC000004004080B487B000AFF860B9607A6036
:1025FC00FB681B6A7B61FB681B6A23F00102FB68AA
:10260C001A62FB689B693B613B6923F0F0033B61F9
:10261C007B681B013A6913433B617B6923F00A0316
:10262C007B617A69BB6813437B61FB683A699A6189
:10263C00FB687A691A6200BF1C37BD4680BC7047C4
:10264C0080B487B000AFF860B9607A60FB681B6A31
:10265C007B61FB681B6A23F01002FB681A62FB6843
:10266C009B693B613B6923F470433B617B681B03B3
:10267C003A6913433B617B6923F0A0037B61BB6820
:10268C001B017A6913437B61FB683A699A61FB68A9
:10269C007A691A6200BF1C37BD4680BC704780B493
:1026AC0085B000AF786039607B689B68FB60FB6825
:1026BC0023F07003FB603A68FB68134343F0070395
:1026CC00FB607B68FA689A6000BF1437BD4680BC1B
:1026DC00704780B487B000AFF860B9607A603B6037
:1026EC00FB689B687B617B6923F47F437B613B6860
:1026FC001A027B681A43BB6813437A6913437B61E4
:10270C00FB687A699A6000BF1C37BD4680BC704775
:10271C0080B485B000AF786039607B6893F83C304A
:10272C00012B01D1022341E07B68012283F83C207C
:10273C007B68022283F83D207B681B685B68FB602A
:10274C007B681B689B68BB60FB6823F07003FB60B5
:10275C003B681B68FA681343FB607B681B68FA686C
:10276C005A607B681B68144A934209D07B681B68CB
:10277C00B3F1804F04D07B681B68104A93420CD194
:10278C00BB6823F08003BB603B685B68BA6813438B
:10279C00BB607B681B68BA689A607B68012283F80F
:1027AC003D207B68002283F83C2000231846143718
:1027BC00BD4680BC704700BF002C014000040040A7
:1027CC0080B483B000AF786000BF0C37BD4680BCCE
:1027DC00704780B483B000AF786000BF0C37BD4643
:1027EC0080BC704770B500260C4D0D4C641BA410BA
:1027FC00A64209D100F022F800260A4D0A4C641BAF
:10280C00A410A64205D170BD55F8043B984701367B
:10281C00EEE755F8043B98470136F2E784280008A8
:10282C0084280008842800088828000803460244ED
:10283C00934200D1704703F8011BF9E7F8B500BFCC
:10284C00F8BC08BC9E467047F8B500BFF8BC08BC85
:04285C009E467047DD
:102860000000000000000000010203040607080940
:1028700002030405060708090A0B0C0D0E0F1010C1
:042880000102000051
:042884003101000816
:042888000D01000836
:10288C00000801400008014000080140020004005B
:10289C0008000000000C0140000C0140000C01403D
:1028AC00000C0140000C0140000C0140000C0140E8
:1028BC00010002000400080010002000400000008D
:1028CC0000000000000001010000010101010000F6
:1028DC0001000001000000000001010001000001E6
:1028EC0001000000010000010000000100000000D8
:1028FC0000000000010101010000000000000000C8
:10290C0000000001000000000A00000000127A0024
:10291C000500000002000000030000001000000091
:04292C0001000000A6
:0400000508001201DC
:00000001FF
